{
  "contractName": "LotteryMint",
  "abi": [
    {
      "inputs": [],
      "stateMutability": "nonpayable",
      "type": "constructor"
    },
    {
      "anonymous": false,
      "inputs": [
        {
          "indexed": true,
          "internalType": "address",
          "name": "owner",
          "type": "address"
        },
        {
          "indexed": true,
          "internalType": "address",
          "name": "approved",
          "type": "address"
        },
        {
          "indexed": true,
          "internalType": "uint256",
          "name": "tokenId",
          "type": "uint256"
        }
      ],
      "name": "Approval",
      "type": "event"
    },
    {
      "anonymous": false,
      "inputs": [
        {
          "indexed": true,
          "internalType": "address",
          "name": "owner",
          "type": "address"
        },
        {
          "indexed": true,
          "internalType": "address",
          "name": "operator",
          "type": "address"
        },
        {
          "indexed": false,
          "internalType": "bool",
          "name": "approved",
          "type": "bool"
        }
      ],
      "name": "ApprovalForAll",
      "type": "event"
    },
    {
      "anonymous": false,
      "inputs": [
        {
          "indexed": true,
          "internalType": "address",
          "name": "from",
          "type": "address"
        },
        {
          "indexed": true,
          "internalType": "address",
          "name": "to",
          "type": "address"
        },
        {
          "indexed": true,
          "internalType": "uint256",
          "name": "tokenId",
          "type": "uint256"
        }
      ],
      "name": "Transfer",
      "type": "event"
    },
    {
      "inputs": [
        {
          "internalType": "uint256",
          "name": "",
          "type": "uint256"
        }
      ],
      "name": "URI",
      "outputs": [
        {
          "internalType": "string",
          "name": "",
          "type": "string"
        }
      ],
      "stateMutability": "view",
      "type": "function"
    },
    {
      "inputs": [
        {
          "internalType": "address",
          "name": "to",
          "type": "address"
        },
        {
          "internalType": "uint256",
          "name": "tokenId",
          "type": "uint256"
        }
      ],
      "name": "approve",
      "outputs": [],
      "stateMutability": "nonpayable",
      "type": "function"
    },
    {
      "inputs": [
        {
          "internalType": "address",
          "name": "owner",
          "type": "address"
        }
      ],
      "name": "balanceOf",
      "outputs": [
        {
          "internalType": "uint256",
          "name": "",
          "type": "uint256"
        }
      ],
      "stateMutability": "view",
      "type": "function"
    },
    {
      "inputs": [
        {
          "internalType": "uint256",
          "name": "tokenId",
          "type": "uint256"
        }
      ],
      "name": "getApproved",
      "outputs": [
        {
          "internalType": "address",
          "name": "",
          "type": "address"
        }
      ],
      "stateMutability": "view",
      "type": "function"
    },
    {
      "inputs": [
        {
          "internalType": "address",
          "name": "owner",
          "type": "address"
        },
        {
          "internalType": "address",
          "name": "operator",
          "type": "address"
        }
      ],
      "name": "isApprovedForAll",
      "outputs": [
        {
          "internalType": "bool",
          "name": "",
          "type": "bool"
        }
      ],
      "stateMutability": "view",
      "type": "function"
    },
    {
      "inputs": [],
      "name": "name",
      "outputs": [
        {
          "internalType": "string",
          "name": "",
          "type": "string"
        }
      ],
      "stateMutability": "view",
      "type": "function"
    },
    {
      "inputs": [
        {
          "internalType": "uint256",
          "name": "tokenId",
          "type": "uint256"
        }
      ],
      "name": "ownerOf",
      "outputs": [
        {
          "internalType": "address",
          "name": "",
          "type": "address"
        }
      ],
      "stateMutability": "view",
      "type": "function"
    },
    {
      "inputs": [
        {
          "internalType": "address",
          "name": "from",
          "type": "address"
        },
        {
          "internalType": "address",
          "name": "to",
          "type": "address"
        },
        {
          "internalType": "uint256",
          "name": "tokenId",
          "type": "uint256"
        }
      ],
      "name": "safeTransferFrom",
      "outputs": [],
      "stateMutability": "nonpayable",
      "type": "function"
    },
    {
      "inputs": [
        {
          "internalType": "address",
          "name": "from",
          "type": "address"
        },
        {
          "internalType": "address",
          "name": "to",
          "type": "address"
        },
        {
          "internalType": "uint256",
          "name": "tokenId",
          "type": "uint256"
        },
        {
          "internalType": "bytes",
          "name": "_data",
          "type": "bytes"
        }
      ],
      "name": "safeTransferFrom",
      "outputs": [],
      "stateMutability": "nonpayable",
      "type": "function"
    },
    {
      "inputs": [
        {
          "internalType": "address",
          "name": "operator",
          "type": "address"
        },
        {
          "internalType": "bool",
          "name": "approved",
          "type": "bool"
        }
      ],
      "name": "setApprovalForAll",
      "outputs": [],
      "stateMutability": "nonpayable",
      "type": "function"
    },
    {
      "inputs": [
        {
          "internalType": "bytes4",
          "name": "interfaceId",
          "type": "bytes4"
        }
      ],
      "name": "supportsInterface",
      "outputs": [
        {
          "internalType": "bool",
          "name": "",
          "type": "bool"
        }
      ],
      "stateMutability": "view",
      "type": "function"
    },
    {
      "inputs": [],
      "name": "symbol",
      "outputs": [
        {
          "internalType": "string",
          "name": "",
          "type": "string"
        }
      ],
      "stateMutability": "view",
      "type": "function"
    },
    {
      "inputs": [
        {
          "internalType": "uint256",
          "name": "tokenId",
          "type": "uint256"
        }
      ],
      "name": "tokenURI",
      "outputs": [
        {
          "internalType": "string",
          "name": "",
          "type": "string"
        }
      ],
      "stateMutability": "view",
      "type": "function"
    },
    {
      "inputs": [
        {
          "internalType": "uint256",
          "name": "",
          "type": "uint256"
        }
      ],
      "name": "tokens",
      "outputs": [
        {
          "internalType": "uint256",
          "name": "",
          "type": "uint256"
        }
      ],
      "stateMutability": "view",
      "type": "function"
    },
    {
      "inputs": [
        {
          "internalType": "address",
          "name": "from",
          "type": "address"
        },
        {
          "internalType": "address",
          "name": "to",
          "type": "address"
        },
        {
          "internalType": "uint256",
          "name": "tokenId",
          "type": "uint256"
        }
      ],
      "name": "transferFrom",
      "outputs": [],
      "stateMutability": "nonpayable",
      "type": "function"
    },
    {
      "inputs": [
        {
          "internalType": "uint256",
          "name": "class",
          "type": "uint256"
        }
      ],
      "name": "awardItem",
      "outputs": [
        {
          "internalType": "uint256",
          "name": "",
          "type": "uint256"
        }
      ],
      "stateMutability": "nonpayable",
      "type": "function"
    },
    {
      "inputs": [
        {
          "internalType": "address",
          "name": "player",
          "type": "address"
        },
        {
          "internalType": "uint256",
          "name": "tokenId",
          "type": "uint256"
        }
      ],
      "name": "sendNFT",
      "outputs": [],
      "stateMutability": "nonpayable",
      "type": "function"
    },
    {
      "inputs": [
        {
          "internalType": "uint256",
          "name": "tokenID",
          "type": "uint256"
        }
      ],
      "name": "getTokenURI",
      "outputs": [
        {
          "internalType": "string",
          "name": "",
          "type": "string"
        }
      ],
      "stateMutability": "view",
      "type": "function"
    }
  ],
  "bytecode": "0x60806040523480156200001157600080fd5b506040518060400160405280600b81526020017f4c6f74746572794d696e740000000000000000000000000000000000000000008152506040518060400160405280600381526020017f4c544d000000000000000000000000000000000000000000000000000000000081525081600090805190602001906200009692919062000341565b508060019080519060200190620000af92919062000341565b50505033601160006101000a81548173ffffffffffffffffffffffffffffffffffffffff021916908373ffffffffffffffffffffffffffffffffffffffff1602179055506040518060a001604052806066815260200162003475606691396008600060088110620001255762000124620003f1565b5b0190805190602001906200013b92919062000341565b506040518060a0016040528060768152602001620035c26076913960086001600881106200016e576200016d620003f1565b5b0190805190602001906200018492919062000341565b506040518060a001604052806066815260200162003638606691396008600260088110620001b757620001b6620003f1565b5b019080519060200190620001cd92919062000341565b506040518060a0016040528060708152602001620035526070913960086003600881106200020057620001ff620003f1565b5b0190805190602001906200021692919062000341565b506040518060a00160405280607181526020016200369e607191396008600460088110620002495762000248620003f1565b5b0190805190602001906200025f92919062000341565b506040518060a0016040528060798152602001620033fc607991396008600560088110620002925762000291620003f1565b5b019080519060200190620002a892919062000341565b506040518060a00160405280606881526020016200370f606891396008600660088110620002db57620002da620003f1565b5b019080519060200190620002f192919062000341565b506040518060a0016040528060778152602001620034db607791396008600760088110620003245762000323620003f1565b5b0190805190602001906200033a92919062000341565b5062000484565b8280546200034f906200044f565b90600052602060002090601f016020900481019282620003735760008555620003bf565b82601f106200038e57805160ff1916838001178555620003bf565b82800160010185558215620003bf579182015b82811115620003be578251825591602001919060010190620003a1565b5b509050620003ce9190620003d2565b5090565b5b80821115620003ed576000816000905550600101620003d3565b5090565b7f4e487b7100000000000000000000000000000000000000000000000000000000600052603260045260246000fd5b7f4e487b7100000000000000000000000000000000000000000000000000000000600052602260045260246000fd5b600060028204905060018216806200046857607f821691505b6020821081036200047e576200047d62000420565b5b50919050565b612f6880620004946000396000f3fe608060405234801561001057600080fd5b50600436106101165760003560e01c80636352211e116100a2578063a22cb46511610071578063a22cb4651461032b578063b88d4fde14610347578063c87b56dd14610363578063d67262e514610393578063e985e9c5146103af57610116565b80636352211e1461027d57806370a08231146102ad578063901e1c01146102dd57806395d89b411461030d57610116565b806312dc1fb3116100e957806312dc1fb3146101b557806323b872dd146101e55780633bb3a24d1461020157806342842e0e146102315780634f64b2be1461024d57610116565b806301ffc9a71461011b57806306fdde031461014b578063081812fc14610169578063095ea7b314610199575b600080fd5b61013560048036038101906101309190611ca5565b6103df565b6040516101429190611ced565b60405180910390f35b6101536104c1565b6040516101609190611da1565b60405180910390f35b610183600480360381019061017e9190611df9565b610553565b6040516101909190611e67565b60405180910390f35b6101b360048036038101906101ae9190611eae565b6105d8565b005b6101cf60048036038101906101ca9190611df9565b6106ef565b6040516101dc9190611efd565b60405180910390f35b6101ff60048036038101906101fa9190611f18565b61083f565b005b61021b60048036038101906102169190611df9565b61089f565b6040516102289190611da1565b60405180910390f35b61024b60048036038101906102469190611f18565b6108b1565b005b61026760048036038101906102629190611df9565b6108d1565b6040516102749190611efd565b60405180910390f35b61029760048036038101906102929190611df9565b6108f5565b6040516102a49190611e67565b60405180910390f35b6102c760048036038101906102c29190611f6b565b6109a6565b6040516102d49190611efd565b60405180910390f35b6102f760048036038101906102f29190611df9565b610a5d565b6040516103049190611da1565b60405180910390f35b610315610b00565b6040516103229190611da1565b60405180910390f35b61034560048036038101906103409190611fc4565b610b92565b005b610361600480360381019061035c9190612139565b610ba8565b005b61037d60048036038101906103789190611df9565b610c0a565b60405161038a9190611da1565b60405180910390f35b6103ad60048036038101906103a89190611eae565b610d5b565b005b6103c960048036038101906103c491906121bc565b610e1c565b6040516103d69190611ced565b60405180910390f35b60007f80ac58cd000000000000000000000000000000000000000000000000000000007bffffffffffffffffffffffffffffffffffffffffffffffffffffffff1916827bffffffffffffffffffffffffffffffffffffffffffffffffffffffff191614806104aa57507f5b5e139f000000000000000000000000000000000000000000000000000000007bffffffffffffffffffffffffffffffffffffffffffffffffffffffff1916827bffffffffffffffffffffffffffffffffffffffffffffffffffffffff1916145b806104ba57506104b982610eb0565b5b9050919050565b6060600080546104d09061222b565b80601f01602080910402602001604051908101604052809291908181526020018280546104fc9061222b565b80156105495780601f1061051e57610100808354040283529160200191610549565b820191906000526020600020905b81548152906001019060200180831161052c57829003601f168201915b5050505050905090565b600061055e82610f1a565b61059d576040517f08c379a0000000000000000000000000000000000000000000000000000000008152600401610594906122ce565b60405180910390fd5b6004600083815260200190815260200160002060009054906101000a900473ffffffffffffffffffffffffffffffffffffffff169050919050565b60006105e3826108f5565b90508073ffffffffffffffffffffffffffffffffffffffff168373ffffffffffffffffffffffffffffffffffffffff1603610653576040517f08c379a000000000000000000000000000000000000000000000000000000000815260040161064a90612360565b60405180910390fd5b8073ffffffffffffffffffffffffffffffffffffffff16610672610f86565b73ffffffffffffffffffffffffffffffffffffffff1614806106a157506106a08161069b610f86565b610e1c565b5b6106e0576040517f08c379a00000000000000000000000000000000000000000000000000000000081526004016106d7906123f2565b60405180910390fd5b6106ea8383610f8e565b505050565b600080821180156107005750600982105b61073f576040517f08c379a000000000000000000000000000000000000000000000000000000000815260040161073690612484565b60405180910390fd5b600061074b6007611047565b9050610779601160009054906101000a900473ffffffffffffffffffffffffffffffffffffffff1682611055565b61082c81600860018661078c91906124d3565b6008811061079d5761079c612507565b5b0180546107a99061222b565b80601f01602080910402602001604051908101604052809291908181526020018280546107d59061222b565b80156108225780601f106107f757610100808354040283529160200191610822565b820191906000526020600020905b81548152906001019060200180831161080557829003601f168201915b505050505061122e565b61083660076112a2565b80915050919050565b61085061084a610f86565b826112b8565b61088f576040517f08c379a0000000000000000000000000000000000000000000000000000000008152600401610886906125a8565b60405180910390fd5b61089a838383611396565b505050565b60606108aa82610c0a565b9050919050565b6108cc83838360405180602001604052806000815250610ba8565b505050565b601081815481106108e157600080fd5b906000526020600020016000915090505481565b6000806002600084815260200190815260200160002060009054906101000a900473ffffffffffffffffffffffffffffffffffffffff169050600073ffffffffffffffffffffffffffffffffffffffff168173ffffffffffffffffffffffffffffffffffffffff160361099d576040517f08c379a00000000000000000000000000000000000000000000000000000000081526004016109949061263a565b60405180910390fd5b80915050919050565b60008073ffffffffffffffffffffffffffffffffffffffff168273ffffffffffffffffffffffffffffffffffffffff1603610a16576040517f08c379a0000000000000000000000000000000000000000000000000000000008152600401610a0d906126cc565b60405180910390fd5b600360008373ffffffffffffffffffffffffffffffffffffffff1673ffffffffffffffffffffffffffffffffffffffff168152602001908152602001600020549050919050565b60088160088110610a6d57600080fd5b016000915090508054610a7f9061222b565b80601f0160208091040260200160405190810160405280929190818152602001828054610aab9061222b565b8015610af85780601f10610acd57610100808354040283529160200191610af8565b820191906000526020600020905b815481529060010190602001808311610adb57829003601f168201915b505050505081565b606060018054610b0f9061222b565b80601f0160208091040260200160405190810160405280929190818152602001828054610b3b9061222b565b8015610b885780601f10610b5d57610100808354040283529160200191610b88565b820191906000526020600020905b815481529060010190602001808311610b6b57829003601f168201915b5050505050905090565b610ba4610b9d610f86565b83836115fc565b5050565b610bb9610bb3610f86565b836112b8565b610bf8576040517f08c379a0000000000000000000000000000000000000000000000000000000008152600401610bef906125a8565b60405180910390fd5b610c0484848484611768565b50505050565b6060610c1582610f1a565b610c54576040517f08c379a0000000000000000000000000000000000000000000000000000000008152600401610c4b9061275e565b60405180910390fd5b6000600660008481526020019081526020016000208054610c749061222b565b80601f0160208091040260200160405190810160405280929190818152602001828054610ca09061222b565b8015610ced5780601f10610cc257610100808354040283529160200191610ced565b820191906000526020600020905b815481529060010190602001808311610cd057829003601f168201915b505050505090506000610cfe6117c4565b90506000815103610d13578192505050610d56565b600082511115610d48578082604051602001610d309291906127ba565b60405160208183030381529060405292505050610d56565b610d51846117db565b925050505b919050565b601160009054906101000a900473ffffffffffffffffffffffffffffffffffffffff1673ffffffffffffffffffffffffffffffffffffffff163373ffffffffffffffffffffffffffffffffffffffff1614610deb576040517f08c379a0000000000000000000000000000000000000000000000000000000008152600401610de290612850565b60405180910390fd5b610e18601160009054906101000a900473ffffffffffffffffffffffffffffffffffffffff1683836108b1565b5050565b6000600560008473ffffffffffffffffffffffffffffffffffffffff1673ffffffffffffffffffffffffffffffffffffffff16815260200190815260200160002060008373ffffffffffffffffffffffffffffffffffffffff1673ffffffffffffffffffffffffffffffffffffffff16815260200190815260200160002060009054906101000a900460ff16905092915050565b60007f01ffc9a7000000000000000000000000000000000000000000000000000000007bffffffffffffffffffffffffffffffffffffffffffffffffffffffff1916827bffffffffffffffffffffffffffffffffffffffffffffffffffffffff1916149050919050565b60008073ffffffffffffffffffffffffffffffffffffffff166002600084815260200190815260200160002060009054906101000a900473ffffffffffffffffffffffffffffffffffffffff1673ffffffffffffffffffffffffffffffffffffffff1614159050919050565b600033905090565b816004600083815260200190815260200160002060006101000a81548173ffffffffffffffffffffffffffffffffffffffff021916908373ffffffffffffffffffffffffffffffffffffffff160217905550808273ffffffffffffffffffffffffffffffffffffffff16611001836108f5565b73ffffffffffffffffffffffffffffffffffffffff167f8c5be1e5ebec7d5bd14f71427d1e84f3dd0314c0f7b2291e5b200ac8c7c3b92560405160405180910390a45050565b600081600001549050919050565b600073ffffffffffffffffffffffffffffffffffffffff168273ffffffffffffffffffffffffffffffffffffffff16036110c4576040517f08c379a00000000000000000000000000000000000000000000000000000000081526004016110bb906128bc565b60405180910390fd5b6110cd81610f1a565b1561110d576040517f08c379a000000000000000000000000000000000000000000000000000000000815260040161110490612928565b60405180910390fd5b61111960008383611882565b6001600360008473ffffffffffffffffffffffffffffffffffffffff1673ffffffffffffffffffffffffffffffffffffffff16815260200190815260200160002060008282546111699190612948565b92505081905550816002600083815260200190815260200160002060006101000a81548173ffffffffffffffffffffffffffffffffffffffff021916908373ffffffffffffffffffffffffffffffffffffffff160217905550808273ffffffffffffffffffffffffffffffffffffffff16600073ffffffffffffffffffffffffffffffffffffffff167fddf252ad1be2c89b69c2b068fc378daa952ba7f163c4a11628f55a4df523b3ef60405160405180910390a461122a60008383611887565b5050565b61123782610f1a565b611276576040517f08c379a000000000000000000000000000000000000000000000000000000000815260040161126d90612a10565b60405180910390fd5b8060066000848152602001908152602001600020908051906020019061129d929190611b96565b505050565b6001816000016000828254019250508190555050565b60006112c382610f1a565b611302576040517f08c379a00000000000000000000000000000000000000000000000000000000081526004016112f990612aa2565b60405180910390fd5b600061130d836108f5565b90508073ffffffffffffffffffffffffffffffffffffffff168473ffffffffffffffffffffffffffffffffffffffff16148061134f575061134e8185610e1c565b5b8061138d57508373ffffffffffffffffffffffffffffffffffffffff1661137584610553565b73ffffffffffffffffffffffffffffffffffffffff16145b91505092915050565b8273ffffffffffffffffffffffffffffffffffffffff166113b6826108f5565b73ffffffffffffffffffffffffffffffffffffffff161461140c576040517f08c379a000000000000000000000000000000000000000000000000000000000815260040161140390612b34565b60405180910390fd5b600073ffffffffffffffffffffffffffffffffffffffff168273ffffffffffffffffffffffffffffffffffffffff160361147b576040517f08c379a000000000000000000000000000000000000000000000000000000000815260040161147290612bc6565b60405180910390fd5b611486838383611882565b611491600082610f8e565b6001600360008573ffffffffffffffffffffffffffffffffffffffff1673ffffffffffffffffffffffffffffffffffffffff16815260200190815260200160002060008282546114e191906124d3565b925050819055506001600360008473ffffffffffffffffffffffffffffffffffffffff1673ffffffffffffffffffffffffffffffffffffffff16815260200190815260200160002060008282546115389190612948565b92505081905550816002600083815260200190815260200160002060006101000a81548173ffffffffffffffffffffffffffffffffffffffff021916908373ffffffffffffffffffffffffffffffffffffffff160217905550808273ffffffffffffffffffffffffffffffffffffffff168473ffffffffffffffffffffffffffffffffffffffff167fddf252ad1be2c89b69c2b068fc378daa952ba7f163c4a11628f55a4df523b3ef60405160405180910390a46115f7838383611887565b505050565b8173ffffffffffffffffffffffffffffffffffffffff168373ffffffffffffffffffffffffffffffffffffffff160361166a576040517f08c379a000000000000000000000000000000000000000000000000000000000815260040161166190612c32565b60405180910390fd5b80600560008573ffffffffffffffffffffffffffffffffffffffff1673ffffffffffffffffffffffffffffffffffffffff16815260200190815260200160002060008473ffffffffffffffffffffffffffffffffffffffff1673ffffffffffffffffffffffffffffffffffffffff16815260200190815260200160002060006101000a81548160ff0219169083151502179055508173ffffffffffffffffffffffffffffffffffffffff168373ffffffffffffffffffffffffffffffffffffffff167f17307eab39ab6107e8899845ad3d59bd9653f200f220920489ca2b5937696c318360405161175b9190611ced565b60405180910390a3505050565b611773848484611396565b61177f8484848461188c565b6117be576040517f08c379a00000000000000000000000000000000000000000000000000000000081526004016117b590612cc4565b60405180910390fd5b50505050565b606060405180602001604052806000815250905090565b60606117e682610f1a565b611825576040517f08c379a000000000000000000000000000000000000000000000000000000000815260040161181c90612d56565b60405180910390fd5b600061182f6117c4565b9050600081511161184f576040518060200160405280600081525061187a565b8061185984611a13565b60405160200161186a9291906127ba565b6040516020818303038152906040525b915050919050565b505050565b505050565b60006118ad8473ffffffffffffffffffffffffffffffffffffffff16611b73565b15611a06578373ffffffffffffffffffffffffffffffffffffffff1663150b7a026118d6610f86565b8786866040518563ffffffff1660e01b81526004016118f89493929190612dcb565b6020604051808303816000875af192505050801561193457506040513d601f19601f820116820180604052508101906119319190612e2c565b60015b6119b6573d8060008114611964576040519150601f19603f3d011682016040523d82523d6000602084013e611969565b606091505b5060008151036119ae576040517f08c379a00000000000000000000000000000000000000000000000000000000081526004016119a590612cc4565b60405180910390fd5b805181602001fd5b63150b7a0260e01b7bffffffffffffffffffffffffffffffffffffffffffffffffffffffff1916817bffffffffffffffffffffffffffffffffffffffffffffffffffffffff191614915050611a0b565b600190505b949350505050565b606060008203611a5a576040518060400160405280600181526020017f30000000000000000000000000000000000000000000000000000000000000008152509050611b6e565b600082905060005b60008214611a8c578080611a7590612e59565b915050600a82611a859190612ed0565b9150611a62565b60008167ffffffffffffffff811115611aa857611aa761200e565b5b6040519080825280601f01601f191660200182016040528015611ada5781602001600182028036833780820191505090505b5090505b60008514611b6757600182611af391906124d3565b9150600a85611b029190612f01565b6030611b0e9190612948565b60f81b818381518110611b2457611b23612507565b5b60200101907effffffffffffffffffffffffffffffffffffffffffffffffffffffffffffff1916908160001a905350600a85611b609190612ed0565b9450611ade565b8093505050505b919050565b6000808273ffffffffffffffffffffffffffffffffffffffff163b119050919050565b828054611ba29061222b565b90600052602060002090601f016020900481019282611bc45760008555611c0b565b82601f10611bdd57805160ff1916838001178555611c0b565b82800160010185558215611c0b579182015b82811115611c0a578251825591602001919060010190611bef565b5b509050611c189190611c1c565b5090565b5b80821115611c35576000816000905550600101611c1d565b5090565b6000604051905090565b600080fd5b600080fd5b60007fffffffff0000000000000000000000000000000000000000000000000000000082169050919050565b611c8281611c4d565b8114611c8d57600080fd5b50565b600081359050611c9f81611c79565b92915050565b600060208284031215611cbb57611cba611c43565b5b6000611cc984828501611c90565b91505092915050565b60008115159050919050565b611ce781611cd2565b82525050565b6000602082019050611d026000830184611cde565b92915050565b600081519050919050565b600082825260208201905092915050565b60005b83811015611d42578082015181840152602081019050611d27565b83811115611d51576000848401525b50505050565b6000601f19601f8301169050919050565b6000611d7382611d08565b611d7d8185611d13565b9350611d8d818560208601611d24565b611d9681611d57565b840191505092915050565b60006020820190508181036000830152611dbb8184611d68565b905092915050565b6000819050919050565b611dd681611dc3565b8114611de157600080fd5b50565b600081359050611df381611dcd565b92915050565b600060208284031215611e0f57611e0e611c43565b5b6000611e1d84828501611de4565b91505092915050565b600073ffffffffffffffffffffffffffffffffffffffff82169050919050565b6000611e5182611e26565b9050919050565b611e6181611e46565b82525050565b6000602082019050611e7c6000830184611e58565b92915050565b611e8b81611e46565b8114611e9657600080fd5b50565b600081359050611ea881611e82565b92915050565b60008060408385031215611ec557611ec4611c43565b5b6000611ed385828601611e99565b9250506020611ee485828601611de4565b9150509250929050565b611ef781611dc3565b82525050565b6000602082019050611f126000830184611eee565b92915050565b600080600060608486031215611f3157611f30611c43565b5b6000611f3f86828701611e99565b9350506020611f5086828701611e99565b9250506040611f6186828701611de4565b9150509250925092565b600060208284031215611f8157611f80611c43565b5b6000611f8f84828501611e99565b91505092915050565b611fa181611cd2565b8114611fac57600080fd5b50565b600081359050611fbe81611f98565b92915050565b60008060408385031215611fdb57611fda611c43565b5b6000611fe985828601611e99565b9250506020611ffa85828601611faf565b9150509250929050565b600080fd5b600080fd5b7f4e487b7100000000000000000000000000000000000000000000000000000000600052604160045260246000fd5b61204682611d57565b810181811067ffffffffffffffff821117156120655761206461200e565b5b80604052505050565b6000612078611c39565b9050612084828261203d565b919050565b600067ffffffffffffffff8211156120a4576120a361200e565b5b6120ad82611d57565b9050602081019050919050565b82818337600083830152505050565b60006120dc6120d784612089565b61206e565b9050828152602081018484840111156120f8576120f7612009565b5b6121038482856120ba565b509392505050565b600082601f8301126121205761211f612004565b5b81356121308482602086016120c9565b91505092915050565b6000806000806080858703121561215357612152611c43565b5b600061216187828801611e99565b945050602061217287828801611e99565b935050604061218387828801611de4565b925050606085013567ffffffffffffffff8111156121a4576121a3611c48565b5b6121b08782880161210b565b91505092959194509250565b600080604083850312156121d3576121d2611c43565b5b60006121e185828601611e99565b92505060206121f285828601611e99565b9150509250929050565b7f4e487b7100000000000000000000000000000000000000000000000000000000600052602260045260246000fd5b6000600282049050600182168061224357607f821691505b602082108103612256576122556121fc565b5b50919050565b7f4552433732313a20617070726f76656420717565727920666f72206e6f6e657860008201527f697374656e7420746f6b656e0000000000000000000000000000000000000000602082015250565b60006122b8602c83611d13565b91506122c38261225c565b604082019050919050565b600060208201905081810360008301526122e7816122ab565b9050919050565b7f4552433732313a20617070726f76616c20746f2063757272656e74206f776e6560008201527f7200000000000000000000000000000000000000000000000000000000000000602082015250565b600061234a602183611d13565b9150612355826122ee565b604082019050919050565b600060208201905081810360008301526123798161233d565b9050919050565b7f4552433732313a20617070726f76652063616c6c6572206973206e6f74206f7760008201527f6e6572206e6f7220617070726f76656420666f7220616c6c0000000000000000602082015250565b60006123dc603883611d13565b91506123e782612380565b604082019050919050565b6000602082019050818103600083015261240b816123cf565b9050919050565b7f506c6561736520696e73657274206120636f727265637420636c61737320666f60008201527f7220746865207072697a65210000000000000000000000000000000000000000602082015250565b600061246e602c83611d13565b915061247982612412565b604082019050919050565b6000602082019050818103600083015261249d81612461565b9050919050565b7f4e487b7100000000000000000000000000000000000000000000000000000000600052601160045260246000fd5b60006124de82611dc3565b91506124e983611dc3565b9250828210156124fc576124fb6124a4565b5b828203905092915050565b7f4e487b7100000000000000000000000000000000000000000000000000000000600052603260045260246000fd5b7f4552433732313a207472616e736665722063616c6c6572206973206e6f74206f60008201527f776e6572206e6f7220617070726f766564000000000000000000000000000000602082015250565b6000612592603183611d13565b915061259d82612536565b604082019050919050565b600060208201905081810360008301526125c181612585565b9050919050565b7f4552433732313a206f776e657220717565727920666f72206e6f6e657869737460008201527f656e7420746f6b656e0000000000000000000000000000000000000000000000602082015250565b6000612624602983611d13565b915061262f826125c8565b604082019050919050565b6000602082019050818103600083015261265381612617565b9050919050565b7f4552433732313a2062616c616e636520717565727920666f7220746865207a6560008201527f726f206164647265737300000000000000000000000000000000000000000000602082015250565b60006126b6602a83611d13565b91506126c18261265a565b604082019050919050565b600060208201905081810360008301526126e5816126a9565b9050919050565b7f45524337323155524953746f726167653a2055524920717565727920666f722060008201527f6e6f6e6578697374656e7420746f6b656e000000000000000000000000000000602082015250565b6000612748603183611d13565b9150612753826126ec565b604082019050919050565b600060208201905081810360008301526127778161273b565b9050919050565b600081905092915050565b600061279482611d08565b61279e818561277e565b93506127ae818560208601611d24565b80840191505092915050565b60006127c68285612789565b91506127d28284612789565b91508190509392505050565b7f596f7520617265206e6f7420746865206c6f7474657279206f70657261746f7260008201527f2c207065726d697373696f6e2064656e69656421000000000000000000000000602082015250565b600061283a603483611d13565b9150612845826127de565b604082019050919050565b600060208201905081810360008301526128698161282d565b9050919050565b7f4552433732313a206d696e7420746f20746865207a65726f2061646472657373600082015250565b60006128a6602083611d13565b91506128b182612870565b602082019050919050565b600060208201905081810360008301526128d581612899565b9050919050565b7f4552433732313a20746f6b656e20616c7265616479206d696e74656400000000600082015250565b6000612912601c83611d13565b915061291d826128dc565b602082019050919050565b6000602082019050818103600083015261294181612905565b9050919050565b600061295382611dc3565b915061295e83611dc3565b9250827fffffffffffffffffffffffffffffffffffffffffffffffffffffffffffffffff03821115612993576129926124a4565b5b828201905092915050565b7f45524337323155524953746f726167653a2055524920736574206f66206e6f6e60008201527f6578697374656e7420746f6b656e000000000000000000000000000000000000602082015250565b60006129fa602e83611d13565b9150612a058261299e565b604082019050919050565b60006020820190508181036000830152612a29816129ed565b9050919050565b7f4552433732313a206f70657261746f7220717565727920666f72206e6f6e657860008201527f697374656e7420746f6b656e0000000000000000000000000000000000000000602082015250565b6000612a8c602c83611d13565b9150612a9782612a30565b604082019050919050565b60006020820190508181036000830152612abb81612a7f565b9050919050565b7f4552433732313a207472616e736665722066726f6d20696e636f72726563742060008201527f6f776e6572000000000000000000000000000000000000000000000000000000602082015250565b6000612b1e602583611d13565b9150612b2982612ac2565b604082019050919050565b60006020820190508181036000830152612b4d81612b11565b9050919050565b7f4552433732313a207472616e7366657220746f20746865207a65726f2061646460008201527f7265737300000000000000000000000000000000000000000000000000000000602082015250565b6000612bb0602483611d13565b9150612bbb82612b54565b604082019050919050565b60006020820190508181036000830152612bdf81612ba3565b9050919050565b7f4552433732313a20617070726f766520746f2063616c6c657200000000000000600082015250565b6000612c1c601983611d13565b9150612c2782612be6565b602082019050919050565b60006020820190508181036000830152612c4b81612c0f565b9050919050565b7f4552433732313a207472616e7366657220746f206e6f6e20455243373231526560008201527f63656976657220696d706c656d656e7465720000000000000000000000000000602082015250565b6000612cae603283611d13565b9150612cb982612c52565b604082019050919050565b60006020820190508181036000830152612cdd81612ca1565b9050919050565b7f4552433732314d657461646174613a2055524920717565727920666f72206e6f60008201527f6e6578697374656e7420746f6b656e0000000000000000000000000000000000602082015250565b6000612d40602f83611d13565b9150612d4b82612ce4565b604082019050919050565b60006020820190508181036000830152612d6f81612d33565b9050919050565b600081519050919050565b600082825260208201905092915050565b6000612d9d82612d76565b612da78185612d81565b9350612db7818560208601611d24565b612dc081611d57565b840191505092915050565b6000608082019050612de06000830187611e58565b612ded6020830186611e58565b612dfa6040830185611eee565b8181036060830152612e0c8184612d92565b905095945050505050565b600081519050612e2681611c79565b92915050565b600060208284031215612e4257612e41611c43565b5b6000612e5084828501612e17565b91505092915050565b6000612e6482611dc3565b91507fffffffffffffffffffffffffffffffffffffffffffffffffffffffffffffffff8203612e9657612e956124a4565b5b600182019050919050565b7f4e487b7100000000000000000000000000000000000000000000000000000000600052601260045260246000fd5b6000612edb82611dc3565b9150612ee683611dc3565b925082612ef657612ef5612ea1565b5b828204905092915050565b6000612f0c82611dc3565b9150612f1783611dc3565b925082612f2757612f26612ea1565b5b82820690509291505056fea26469706673582212202baa5b23b99e454372ea8a696cc0778ce3175d229c702b26fc57c8b397f6ef3464736f6c634300080e003368747470733a2f2f697066732e696f2f697066732f516d536e695941444d66374e446d3453586261333771356d6f506348516673476b724b566176777a38344a6858343f66696c656e616d653d4368696368652543432538316e25323049747a612543432538312532302d2532304d65737369636f2e6a706768747470733a2f2f697066732e696f2f697066732f516d56523873616f7a6f32776e695333567841346a4164694a416d45653272324867364639637369517264336f733f66696c656e616d653d50657472612532302d25323047696f7264616e69612e6a706768747470733a2f2f697066732e696f2f697066732f516d58645a70777550633357676e434352374e474c6b764552583573784e5664585161565445455a6756424154783f66696c656e616d653d372532304d6572617669676c696525323064656c2532306d6f6e646f2532306d6f6465726e6f2e6a706768747470733a2f2f697066732e696f2f697066732f516d623454586848717477763258414c47665939697a6e626235627038645970695a6357463842686941614e59673f66696c656e616d653d4d616368752532305069636368752532302d253230506572752543432538302e6a706768747470733a2f2f697066732e696f2f697066732f516d654161374b59526578623471385039765650714879523478667735446236476d65584b7066477a435a754a7a3f66696c656e616d653d4772616e64652532304d757261676c696125323043696e6573652532302d25323043696e612e6a706768747470733a2f2f697066732e696f2f697066732f516d56374d346d7934755277674c4e746a424e3450464332576a5563656168694b6662584e7452457376574c74613f66696c656e616d653d436f6c6f7373656f2532302d2532304974616c69612e6a706768747470733a2f2f697066732e696f2f697066732f516d534a58615565796551467341725a624676673261645862794d6256647a3234363434676f77743932444248673f66696c656e616d653d43726973746f253230526564656e746f72652532302d25323042726173696c652e6a706768747470733a2f2f697066732e696f2f697066732f516d6572574c5543696d525641766545425057324d516d4c5a35564471323457387939765132774e466e64396a6a3f66696c656e616d653d54616a2532304d6168616c2532302d253230496e6469612e6a7067",
  "immutableReferences": {},
  "source": "// SPDX-License-Identifier: MIT\npragma solidity ^0.8.0;\n\nimport \"@openzeppelin/contracts/token/ERC721/ERC721.sol\";\nimport \"@openzeppelin/contracts/token/ERC721/extensions/ERC721URIStorage.sol\";\nimport \"@openzeppelin/contracts/utils/Counters.sol\";\n\ncontract LotteryMint is ERC721URIStorage {\n    using Counters for Counters.Counter;\n    Counters.Counter private _tokenIds;\n\n    \n    string [8] public URI;\n    uint256 [] public tokens;\n    address lotteryOperator;\n\n\n\n    constructor() ERC721(\"LotteryMint\", \"LTM\") {\n        \n        lotteryOperator = msg.sender;\n        URI[0] = \"https://ipfs.io/ipfs/QmVR8saozo2wniS3VxA4jAdiJAmEe2r2Hg6F9csiQrd3os?filename=Petra%20-%20Giordania.jpg\";\n        URI[1] = \"https://ipfs.io/ipfs/QmeAa7KYRexb4q8P9vVPqHyR4xfw5Db6GmeXKpfGzCZuJz?filename=Grande%20Muraglia%20Cinese%20-%20Cina.jpg\";\n        URI[2] = \"https://ipfs.io/ipfs/QmV7M4my4uRwgLNtjBN4PFC2WjUceahiKfbXNtREsvWLta?filename=Colosseo%20-%20Italia.jpg\";\n        URI[3] = \"https://ipfs.io/ipfs/Qmb4TXhHqtwv2XALGfY9iznbb5bp8dYpiZcWF8BhiAaNYg?filename=Machu%20Picchu%20-%20Peru%CC%80.jpg\";\n        URI[4] = \"https://ipfs.io/ipfs/QmSJXaUeyeQFsArZbFvg2adXbyMbVdz24644gowt92DBHg?filename=Cristo%20Redentore%20-%20Brasile.jpg\";\n        URI[5] = \"https://ipfs.io/ipfs/QmSniYADMf7NDm4SXba37q5moPcHQfsGkrKVavwz84JhX4?filename=Chiche%CC%81n%20Itza%CC%81%20-%20Messico.jpg\";\n        URI[6] = \"https://ipfs.io/ipfs/QmerWLUCimRVAveEBPW2MQmLZ5VDq24W8y9vQ2wNFnd9jj?filename=Taj%20Mahal%20-%20India.jpg\";\n        URI[7] = \"https://ipfs.io/ipfs/QmXdZpwuPc3WgnCCR7NGLkvERX5sxNVdXQaVTEEZgVBATx?filename=7%20Meraviglie%20del%20mondo%20moderno.jpg\";\n\n    }\n\n    function awardItem(uint class)\n        public\n        returns (uint256)\n    {\n        require(class > 0 && class < 9, \"Please insert a correct class for the prize!\");\n        uint256 newItemId = _tokenIds.current();\n        _mint(lotteryOperator, newItemId);\n        _setTokenURI(newItemId, URI[class - 1]);\n        _tokenIds.increment();\n        return newItemId;\n    }\n\n    function sendNFT (address player, uint256 tokenId) public{\n        require(msg.sender == lotteryOperator, \"You are not the lottery operator, permission denied!\");\n        safeTransferFrom(lotteryOperator, player, tokenId);\n    }\n\n    function getTokenURI(uint256 tokenID) view public returns (string memory){\n        return tokenURI(tokenID);\n    }\n\n\n}",
  "sourcePath": "/Users/Koto/Documents/Unipi/P2P/Final Project/Final Project/P2P-Final_Project/contracts/LotteryMint.sol",
  "compiler": {
    "name": "solc",
    "version": "0.8.14+commit.80d49f37.Emscripten.clang"
  },
  "schemaVersion": "3.4.7",
  "updatedAt": "2022-07-05T15:06:46.642Z",
  "networkType": "ethereum",
  "devdoc": {
    "kind": "dev",
    "methods": {
      "approve(address,uint256)": {
        "details": "See {IERC721-approve}."
      },
      "balanceOf(address)": {
        "details": "See {IERC721-balanceOf}."
      },
      "getApproved(uint256)": {
        "details": "See {IERC721-getApproved}."
      },
      "isApprovedForAll(address,address)": {
        "details": "See {IERC721-isApprovedForAll}."
      },
      "name()": {
        "details": "See {IERC721Metadata-name}."
      },
      "ownerOf(uint256)": {
        "details": "See {IERC721-ownerOf}."
      },
      "safeTransferFrom(address,address,uint256)": {
        "details": "See {IERC721-safeTransferFrom}."
      },
      "safeTransferFrom(address,address,uint256,bytes)": {
        "details": "See {IERC721-safeTransferFrom}."
      },
      "setApprovalForAll(address,bool)": {
        "details": "See {IERC721-setApprovalForAll}."
      },
      "supportsInterface(bytes4)": {
        "details": "See {IERC165-supportsInterface}."
      },
      "symbol()": {
        "details": "See {IERC721Metadata-symbol}."
      },
      "tokenURI(uint256)": {
        "details": "See {IERC721Metadata-tokenURI}."
      },
      "transferFrom(address,address,uint256)": {
        "details": "See {IERC721-transferFrom}."
      }
    },
    "version": 1
  },
  "userdoc": {
    "kind": "user",
    "methods": {},
    "version": 1
  }
}