{
  "contractName": "Lottery",
  "abi": [
    {
      "inputs": [],
      "stateMutability": "nonpayable",
      "type": "constructor"
    },
    {
      "anonymous": false,
      "inputs": [
        {
          "indexed": false,
          "internalType": "address",
          "name": "NFTOwner",
          "type": "address"
        },
        {
          "indexed": false,
          "internalType": "uint256",
          "name": "newNFTId",
          "type": "uint256"
        }
      ],
      "name": "NFTMinted",
      "type": "event"
    },
    {
      "anonymous": false,
      "inputs": [
        {
          "indexed": false,
          "internalType": "address",
          "name": "player",
          "type": "address"
        },
        {
          "indexed": false,
          "internalType": "uint256",
          "name": "prize",
          "type": "uint256"
        }
      ],
      "name": "awardPlayer",
      "type": "event"
    },
    {
      "anonymous": false,
      "inputs": [],
      "name": "lotteryClosed",
      "type": "event"
    },
    {
      "anonymous": false,
      "inputs": [],
      "name": "lotteryStart",
      "type": "event"
    },
    {
      "anonymous": false,
      "inputs": [
        {
          "indexed": false,
          "internalType": "uint256[6]",
          "name": "winningNumbers",
          "type": "uint256[6]"
        }
      ],
      "name": "numbersDrawn",
      "type": "event"
    },
    {
      "anonymous": false,
      "inputs": [],
      "name": "roundClosed",
      "type": "event"
    },
    {
      "anonymous": false,
      "inputs": [],
      "name": "roundStart",
      "type": "event"
    },
    {
      "anonymous": false,
      "inputs": [
        {
          "indexed": false,
          "internalType": "address",
          "name": "player",
          "type": "address"
        }
      ],
      "name": "ticketBuy",
      "type": "event"
    },
    {
      "inputs": [],
      "name": "lotteryDuration",
      "outputs": [
        {
          "internalType": "uint256",
          "name": "",
          "type": "uint256"
        }
      ],
      "stateMutability": "view",
      "type": "function",
      "constant": true
    },
    {
      "inputs": [],
      "name": "lotteryOperator",
      "outputs": [
        {
          "internalType": "address payable",
          "name": "",
          "type": "address"
        }
      ],
      "stateMutability": "view",
      "type": "function",
      "constant": true
    },
    {
      "inputs": [],
      "name": "ticketingCloses",
      "outputs": [
        {
          "internalType": "uint256",
          "name": "",
          "type": "uint256"
        }
      ],
      "stateMutability": "view",
      "type": "function",
      "constant": true
    },
    {
      "inputs": [
        {
          "internalType": "address",
          "name": "",
          "type": "address"
        },
        {
          "internalType": "uint256",
          "name": "",
          "type": "uint256"
        }
      ],
      "name": "wonNFTs",
      "outputs": [
        {
          "internalType": "uint256",
          "name": "",
          "type": "uint256"
        }
      ],
      "stateMutability": "view",
      "type": "function",
      "constant": true
    },
    {
      "inputs": [
        {
          "internalType": "uint256",
          "name": "duration",
          "type": "uint256"
        }
      ],
      "name": "startLottery",
      "outputs": [],
      "stateMutability": "nonpayable",
      "type": "function"
    },
    {
      "inputs": [
        {
          "internalType": "uint256[]",
          "name": "numbers",
          "type": "uint256[]"
        }
      ],
      "name": "buy",
      "outputs": [],
      "stateMutability": "payable",
      "type": "function",
      "payable": true
    },
    {
      "inputs": [],
      "name": "startNewRound",
      "outputs": [],
      "stateMutability": "nonpayable",
      "type": "function"
    },
    {
      "inputs": [],
      "name": "closeRound",
      "outputs": [],
      "stateMutability": "nonpayable",
      "type": "function"
    },
    {
      "inputs": [],
      "name": "closeLottery",
      "outputs": [],
      "stateMutability": "nonpayable",
      "type": "function"
    },
    {
      "inputs": [
        {
          "internalType": "uint256",
          "name": "tokenID",
          "type": "uint256"
        }
      ],
      "name": "getURI",
      "outputs": [
        {
          "internalType": "string",
          "name": "",
          "type": "string"
        }
      ],
      "stateMutability": "view",
      "type": "function",
      "constant": true
    },
    {
      "inputs": [
        {
          "internalType": "address",
          "name": "player",
          "type": "address"
        }
      ],
      "name": "getNFTList",
      "outputs": [
        {
          "internalType": "uint256[]",
          "name": "",
          "type": "uint256[]"
        }
      ],
      "stateMutability": "view",
      "type": "function",
      "constant": true
    }
  ],
  "bytecode": "0x60806040526001601555600b60165534801561001a57600080fd5b50615c978061002a6000396000f3fe608060405260043610620000aa5760003560e01c80638fc76f0a116200006d5780638fc76f0a14620001b1578063bd85948c14620001f5578063c243c72b146200020f578063c6bec93a146200022f578063e278fe6f146200025d578063fdbbfbc6146200027757620000aa565b80631aa347dc14620000af5780632d97902f14620000f35780633a66448814620001235780635a58acdd14620001675780636fd098161462000197575b600080fd5b348015620000bc57600080fd5b50620000db6004803603810190620000d59190620019f5565b620002a7565b604051620000ea919062001acb565b60405180910390f35b3480156200010057600080fd5b506200010b62000356565b6040516200011a919062001b00565b60405180910390f35b3480156200013057600080fd5b506200014f600480360381019062000149919062001b82565b6200035c565b6040516200015e919062001c82565b60405180910390f35b3480156200017457600080fd5b506200017f620003f5565b6040516200018e919062001ccb565b60405180910390f35b348015620001a457600080fd5b50620001af62000419565b005b348015620001be57600080fd5b50620001dd6004803603810190620001d7919062001ce8565b620005bf565b604051620001ec919062001b00565b60405180910390f35b3480156200020257600080fd5b506200020d620005f1565b005b6200022d600480360381019062000227919062001e93565b6200072d565b005b3480156200023c57600080fd5b506200025b6004803603810190620002559190620019f5565b62000925565b005b3480156200026a57600080fd5b506200027562000a4e565b005b3480156200028457600080fd5b506200028f62000b73565b6040516200029e919062001b00565b60405180910390f35b6060600260009054906101000a900473ffffffffffffffffffffffffffffffffffffffff1673ffffffffffffffffffffffffffffffffffffffff16633bb3a24d836040518263ffffffff1660e01b815260040162000306919062001b00565b600060405180830381865afa15801562000324573d6000803e3d6000fd5b505050506040513d6000823e3d601f19601f820116820180604052508101906200034f919062001f9d565b9050919050565b60145481565b6060601160008373ffffffffffffffffffffffffffffffffffffffff1673ffffffffffffffffffffffffffffffffffffffff168152602001908152602001600020805480602002602001604051908101604052809291908181526020018280548015620003e957602002820191906000526020600020905b815481526020019060010190808311620003d4575b50505050509050919050565b60008054906101000a900473ffffffffffffffffffffffffffffffffffffffff1681565b60008054906101000a900473ffffffffffffffffffffffffffffffffffffffff1673ffffffffffffffffffffffffffffffffffffffff163373ffffffffffffffffffffffffffffffffffffffff1614620004aa576040517f08c379a0000000000000000000000000000000000000000000000000000000008152600401620004a19062002064565b60405180910390fd5b600060015443116200057a5760005b601380549050811015620005785760138181548110620004de57620004dd62002086565b5b906000526020600020906002020160000160009054906101000a900473ffffffffffffffffffffffffffffffffffffffff1691508173ffffffffffffffffffffffffffffffffffffffff166108fc670de0b6b3a76400009081150290604051600060405180830381858888f1935050505015801562000561573d6000803e3d6000fd5b5080806200056f90620020e4565b915050620004b9565b505b7fe433a584fae9b834f255a3d9575f0aa3eee032236d342820321d44dc44100e3660405160405180910390a13373ffffffffffffffffffffffffffffffffffffffff16ff5b60116020528160005260406000208181548110620005dc57600080fd5b90600052602060002001600091509150505481565b60008054906101000a900473ffffffffffffffffffffffffffffffffffffffff1673ffffffffffffffffffffffffffffffffffffffff163373ffffffffffffffffffffffffffffffffffffffff161462000682576040517f08c379a0000000000000000000000000000000000000000000000000000000008152600401620006799062002064565b60405180910390fd5b6001544311620006c9576040517f08c379a0000000000000000000000000000000000000000000000000000000008152600401620006c090620021a7565b60405180910390fd5b600b6000620006d9919062001847565b60136000620006e991906200185c565b60145443620006f99190620021c9565b6001819055507f4036585281c48b34c372f9f4876591ae9b9b2ad9a4fdd74c07ecc83b7dd4539160405160405180910390a1565b60015443111562000775576040517f08c379a00000000000000000000000000000000000000000000000000000000081526004016200076c906200229c565b60405180910390fd5b670de0b6b3a76400003414620007c2576040517f08c379a0000000000000000000000000000000000000000000000000000000008152600401620007b99062002334565b60405180910390fd5b600681511462000809576040517f08c379a00000000000000000000000000000000000000000000000000000000081526004016200080090620023cc565b60405180910390fd5b6200081362001882565b33816000019073ffffffffffffffffffffffffffffffffffffffff16908173ffffffffffffffffffffffffffffffffffffffff1681525050818160200181905250601381908060018154018082558091505060019003906000526020600020906002020160009091909190915060008201518160000160006101000a81548173ffffffffffffffffffffffffffffffffffffffff021916908373ffffffffffffffffffffffffffffffffffffffff1602179055506020820151816001019080519060200190620008e5929190620018b2565b5050507f52f69303e6fb6d81ee7b4f1083a81e2c91f2602b5a6d41755447408c59e78e9333604051620009199190620023ff565b60405180910390a15050565b336000806101000a81548173ffffffffffffffffffffffffffffffffffffffff021916908373ffffffffffffffffffffffffffffffffffffffff160217905550604051620009739062001904565b604051809103906000f08015801562000990573d6000803e3d6000fd5b50600260006101000a81548173ffffffffffffffffffffffffffffffffffffffff021916908373ffffffffffffffffffffffffffffffffffffffff1602179055508043620009df9190620021c9565b600181905550806014819055506000600190505b600981101562000a1e5762000a088162000b79565b808062000a1590620020e4565b915050620009f3565b507fcd8cc8449ac532496aa75fcd4758459c76bb80523e458c6f3f4a5062b098856260405160405180910390a150565b60008054906101000a900473ffffffffffffffffffffffffffffffffffffffff1673ffffffffffffffffffffffffffffffffffffffff163373ffffffffffffffffffffffffffffffffffffffff161462000adf576040517f08c379a000000000000000000000000000000000000000000000000000000000815260040162000ad69062002064565b60405180910390fd5b60015443101562000b27576040517f08c379a000000000000000000000000000000000000000000000000000000000815260040162000b1e90620021a7565b60405180910390fd5b62000b3162000d1b565b62000b3b62001040565b62000b4562001506565b7f3b26a4da5d78f693f5660820eda07ddaa2130a9b9a0e49c553d5089fb1a42a1860405160405180910390a1565b60015481565b60008054906101000a900473ffffffffffffffffffffffffffffffffffffffff1673ffffffffffffffffffffffffffffffffffffffff163373ffffffffffffffffffffffffffffffffffffffff161462000c0a576040517f08c379a000000000000000000000000000000000000000000000000000000000815260040162000c019062002064565b60405180910390fd5b6000600260009054906101000a900473ffffffffffffffffffffffffffffffffffffffff1673ffffffffffffffffffffffffffffffffffffffff166312dc1fb3836040518263ffffffff1660e01b815260040162000c69919062001b00565b6020604051808303816000875af115801562000c89573d6000803e3d6000fd5b505050506040513d601f19601f8201168201806040525081019062000caf919062002433565b905080600360018462000cc3919062002465565b6008811062000cd75762000cd662002086565b5b01819055507f4cc0a9c4a99ddc700de1af2c9f916a7cbfdb71f14801ccff94061ad1ef8a8040338260405162000d0f929190620024a0565b60405180910390a15050565b60016015540362000d9a5760005b600581101562000d745760018162000d429190620021c9565b600b826006811062000d595762000d5862002086565b5b0181905550808062000d6b90620020e4565b91505062000d29565b506006600b60056006811062000d8f5762000d8e62002086565b5b018190555062001004565b60008054906101000a900473ffffffffffffffffffffffffffffffffffffffff1673ffffffffffffffffffffffffffffffffffffffff163373ffffffffffffffffffffffffffffffffffffffff161462000e2b576040517f08c379a000000000000000000000000000000000000000000000000000000000815260040162000e229062002064565b60405180910390fd5b600154431162000e72576040517f08c379a000000000000000000000000000000000000000000000000000000000815260040162000e6990620021a7565b60405180910390fd5b60005b600681101562001002576005810362000eb95762000e94601a62001648565b60ff16600b826006811062000eae5762000ead62002086565b5b018190555062000ee5565b62000ec5604562001648565b60ff16600b826006811062000edf5762000ede62002086565b5b01819055505b60005b81811162000feb57600b816006811062000f075762000f0662002086565b5b0154600b836006811062000f205762000f1f62002086565b5b015414801562000f31575060058214155b1562000f635762000f43604562001648565b60ff16600b836006811062000f5d5762000f5c62002086565b5b01819055505b600b816006811062000f7a5762000f7962002086565b5b0154600b836006811062000f935762000f9262002086565b5b015414801562000fa35750600582145b1562000fd55762000fb5601a62001648565b60ff16600b836006811062000fcf5762000fce62002086565b5b01819055505b808062000fe290620020e4565b91505062000ee8565b50808062000ff990620020e4565b91505062000e75565b505b7fd576ce88eb988db80de10b84e17ac76bef9cf15c29e5300d573dc369ddcc776c600b604051620010369190620025b0565b60405180910390a1565b60008054906101000a900473ffffffffffffffffffffffffffffffffffffffff1673ffffffffffffffffffffffffffffffffffffffff163373ffffffffffffffffffffffffffffffffffffffff1614620010d1576040517f08c379a0000000000000000000000000000000000000000000000000000000008152600401620010c89062002064565b60405180910390fd5b600154431162001118576040517f08c379a00000000000000000000000000000000000000000000000000000000081526004016200110f90620021a7565b60405180910390fd5b6000806000805b601380549050811015620015005760006013828154811062001146576200114562002086565b5b90600052602060002090600202016040518060400160405290816000820160009054906101000a900473ffffffffffffffffffffffffffffffffffffffff1673ffffffffffffffffffffffffffffffffffffffff1673ffffffffffffffffffffffffffffffffffffffff168152602001600182018054806020026020016040519081016040528092919081815260200182805480156200120657602002820191906000526020600020905b815481526020019060010190808311620011f1575b505050505081525050905060005b600182602001515162001228919062002465565b811015620012c2576000826020015182815181106200124c576200124b62002086565b5b6020026020010151905060005b6005811015620012aa57600b81600681106200127a576200127962002086565b5b01548203620012945787806200129090620020e4565b9850505b8080620012a190620020e4565b91505062001259565b50508080620012b990620020e4565b91505062001214565b50600b600560068110620012db57620012da62002086565b5b01548160200151600581518110620012f857620012f762002086565b5b6020026020010151036200130b57600192505b620013178584620016fd565b93506000841115620014e157600260009054906101000a900473ffffffffffffffffffffffffffffffffffffffff1673ffffffffffffffffffffffffffffffffffffffff1663d67262e58260000151600360018862001377919062002465565b600881106200138b576200138a62002086565b5b01546040518363ffffffff1660e01b8152600401620013ac929190620024a0565b600060405180830381600087803b158015620013c757600080fd5b505af1158015620013dc573d6000803e3d6000fd5b505050507f85f245a8896816198b5a16a3f6b9d0a1cb408bec301f40a31deb443e890a96768160000151600360018762001417919062002465565b600881106200142b576200142a62002086565b5b01546040516200143d929190620024a0565b60405180910390a160116000826000015173ffffffffffffffffffffffffffffffffffffffff1673ffffffffffffffffffffffffffffffffffffffff168152602001908152602001600020600360018662001499919062002465565b60088110620014ad57620014ac62002086565b5b01549080600181540180825580915050600190039060005260206000200160009091909190915055620014e08462000b79565b5b6000925060009450508080620014f790620020e4565b9150506200111f565b50505050565b60008054906101000a900473ffffffffffffffffffffffffffffffffffffffff1673ffffffffffffffffffffffffffffffffffffffff163373ffffffffffffffffffffffffffffffffffffffff161462001597576040517f08c379a00000000000000000000000000000000000000000000000000000000081526004016200158e9062002064565b60405180910390fd5b6001544311620015de576040517f08c379a0000000000000000000000000000000000000000000000000000000008152600401620015d590620021a7565b60405180910390fd5b60008054906101000a900473ffffffffffffffffffffffffffffffffffffffff1673ffffffffffffffffffffffffffffffffffffffff166108fc479081150290604051600060405180830381858888f1935050505015801562001645573d6000803e3d6000fd5b50565b60008142601654436200165c9190620021c9565b620016689190620021c9565b601260009054906101000a900460ff166040516020016200168b9291906200263b565b6040516020818303038152906040528051906020012060001c620016b091906200269a565b601260006101000a81548160ff021916908360ff160217905550600160166000828254620016df9190620021c9565b92505081905550601260009054906101000a900460ff169050919050565b60008060009050600084148015620017125750825b156200172257600890506200183d565b60018414801562001731575082155b156200174157600790506200183c565b60028414801562001750575082155b80620017665750600184148015620017655750825b5b156200177657600690506200183b565b60038414801562001785575082155b806200179b57506002841480156200179a5750825b5b15620017ab57600590506200183a565b600484148015620017ba575082155b80620017d05750600384148015620017cf5750825b5b15620017e0576004905062001839565b600484148015620017ee5750825b15620017fe576003905062001838565b6005841480156200180d575082155b156200181d576002905062001837565b6005841480156200182b5750825b156200183657600190505b5b5b5b5b5b5b5b8091505092915050565b50806006019062001859919062001912565b50565b50805460008255600202906000526020600020908101906200187f919062001931565b50565b6040518060400160405280600073ffffffffffffffffffffffffffffffffffffffff168152602001606081525090565b828054828255906000526020600020908101928215620018f1579160200282015b82811115620018f0578251825591602001919060010190620018d3565b5b50905062001900919062001912565b5090565b61358f80620026d383390190565b5b808211156200192d57600081600090555060010162001913565b5090565b5b808211156200197f57600080820160006101000a81549073ffffffffffffffffffffffffffffffffffffffff021916905560018201600062001975919062001983565b5060020162001932565b5090565b5080546000825590600052602060002090810190620019a3919062001912565b50565b6000604051905090565b600080fd5b600080fd5b6000819050919050565b620019cf81620019ba565b8114620019db57600080fd5b50565b600081359050620019ef81620019c4565b92915050565b60006020828403121562001a0e5762001a0d620019b0565b5b600062001a1e84828501620019de565b91505092915050565b600081519050919050565b600082825260208201905092915050565b60005b8381101562001a6357808201518184015260208101905062001a46565b8381111562001a73576000848401525b50505050565b6000601f19601f8301169050919050565b600062001a978262001a27565b62001aa3818562001a32565b935062001ab581856020860162001a43565b62001ac08162001a79565b840191505092915050565b6000602082019050818103600083015262001ae7818462001a8a565b905092915050565b62001afa81620019ba565b82525050565b600060208201905062001b17600083018462001aef565b92915050565b600073ffffffffffffffffffffffffffffffffffffffff82169050919050565b600062001b4a8262001b1d565b9050919050565b62001b5c8162001b3d565b811462001b6857600080fd5b50565b60008135905062001b7c8162001b51565b92915050565b60006020828403121562001b9b5762001b9a620019b0565b5b600062001bab8482850162001b6b565b91505092915050565b600081519050919050565b600082825260208201905092915050565b6000819050602082019050919050565b62001beb81620019ba565b82525050565b600062001bff838362001be0565b60208301905092915050565b6000602082019050919050565b600062001c258262001bb4565b62001c31818562001bbf565b935062001c3e8362001bd0565b8060005b8381101562001c7557815162001c59888262001bf1565b975062001c668362001c0b565b92505060018101905062001c42565b5085935050505092915050565b6000602082019050818103600083015262001c9e818462001c18565b905092915050565b600062001cb38262001b1d565b9050919050565b62001cc58162001ca6565b82525050565b600060208201905062001ce2600083018462001cba565b92915050565b6000806040838503121562001d025762001d01620019b0565b5b600062001d128582860162001b6b565b925050602062001d2585828601620019de565b9150509250929050565b600080fd5b7f4e487b7100000000000000000000000000000000000000000000000000000000600052604160045260246000fd5b62001d6e8262001a79565b810181811067ffffffffffffffff8211171562001d905762001d8f62001d34565b5b80604052505050565b600062001da5620019a6565b905062001db3828262001d63565b919050565b600067ffffffffffffffff82111562001dd65762001dd562001d34565b5b602082029050602081019050919050565b600080fd5b600062001e0362001dfd8462001db8565b62001d99565b9050808382526020820190506020840283018581111562001e295762001e2862001de7565b5b835b8181101562001e56578062001e418882620019de565b84526020840193505060208101905062001e2b565b5050509392505050565b600082601f83011262001e785762001e7762001d2f565b5b813562001e8a84826020860162001dec565b91505092915050565b60006020828403121562001eac5762001eab620019b0565b5b600082013567ffffffffffffffff81111562001ecd5762001ecc620019b5565b5b62001edb8482850162001e60565b91505092915050565b600080fd5b600067ffffffffffffffff82111562001f075762001f0662001d34565b5b62001f128262001a79565b9050602081019050919050565b600062001f3662001f308462001ee9565b62001d99565b90508281526020810184848401111562001f555762001f5462001ee4565b5b62001f6284828562001a43565b509392505050565b600082601f83011262001f825762001f8162001d2f565b5b815162001f9484826020860162001f1f565b91505092915050565b60006020828403121562001fb65762001fb5620019b0565b5b600082015167ffffffffffffffff81111562001fd75762001fd6620019b5565b5b62001fe58482850162001f6a565b91505092915050565b7f596f7520617265206e6f7420746865206c6f7474657279206f70657261746f7260008201527f2c207065726d697373696f6e2064656e69656421000000000000000000000000602082015250565b60006200204c60348362001a32565b9150620020598262001fee565b604082019050919050565b600060208201905081810360008301526200207f816200203d565b9050919050565b7f4e487b7100000000000000000000000000000000000000000000000000000000600052603260045260246000fd5b7f4e487b7100000000000000000000000000000000000000000000000000000000600052601160045260246000fd5b6000620020f182620019ba565b91507fffffffffffffffffffffffffffffffffffffffffffffffffffffffffffffffff8203620021265762002125620020b5565b5b600182019050919050565b7f526f756e64207374696c6c206f70656e2c20706c656173652077616974206c6f60008201527f747465727920726f756e6420656e647321000000000000000000000000000000602082015250565b60006200218f60318362001a32565b91506200219c8262002131565b604082019050919050565b60006020820190508181036000830152620021c28162002180565b9050919050565b6000620021d682620019ba565b9150620021e383620019ba565b9250827fffffffffffffffffffffffffffffffffffffffffffffffffffffffffffffffff038211156200221b576200221a620020b5565b5b828201905092915050565b7f4c6f747465727920726f756e6420616c726561647920636c6f7365642c20776160008201527f697420666f722061206e657720726f756e6420706c6561736521000000000000602082015250565b600062002284603a8362001a32565b9150620022918262002226565b604082019050919050565b60006020820190508181036000830152620022b78162002275565b9050919050565b7f4e6f7420656e6f756768206d6f6e65792c205469636b6574205072696365202d60008201527f2d3e203120457468657200000000000000000000000000000000000000000000602082015250565b60006200231c602a8362001a32565b91506200232982620022be565b604082019050919050565b600060208201905081810360008301526200234f816200230d565b9050919050565b7f506c656173652063686f6f73652065786163746c79207369782064696666657260008201527f656e74206e756d62657273210000000000000000000000000000000000000000602082015250565b6000620023b4602c8362001a32565b9150620023c18262002356565b604082019050919050565b60006020820190508181036000830152620023e781620023a5565b9050919050565b620023f98162001b3d565b82525050565b6000602082019050620024166000830184620023ee565b92915050565b6000815190506200242d81620019c4565b92915050565b6000602082840312156200244c576200244b620019b0565b5b60006200245c848285016200241c565b91505092915050565b60006200247282620019ba565b91506200247f83620019ba565b925082821015620024955762002494620020b5565b5b828203905092915050565b6000604082019050620024b76000830185620023ee565b620024c6602083018462001aef565b9392505050565b600060069050919050565b600081905092915050565b6000819050919050565b60008160001c9050919050565b6000819050919050565b60006200251b6200251583620024ed565b620024fa565b9050919050565b600062002530825462002504565b9050919050565b6000600182019050919050565b6200254f81620024cd565b6200255b8184620024d8565b92506200256882620024e3565b8060005b83811015620025a857620025808262002522565b6200258c878262001bf1565b9650620025998362002537565b9250506001810190506200256c565b505050505050565b600060c082019050620025c7600083018462002544565b92915050565b6000819050919050565b620025ec620025e682620019ba565b620025cd565b82525050565b600060ff82169050919050565b60008160f81b9050919050565b60006200261982620025ff565b9050919050565b620026356200262f82620025f2565b6200260c565b82525050565b6000620026498285620025d7565b6020820191506200265b828462002620565b6001820191508190509392505050565b7f4e487b7100000000000000000000000000000000000000000000000000000000600052601260045260246000fd5b6000620026a782620019ba565b9150620026b483620019ba565b925082620026c757620026c66200266b565b5b82820690509291505056fe60806040523480156200001157600080fd5b506040518060400160405280600b81526020017f4c6f74746572794d696e740000000000000000000000000000000000000000008152506040518060400160405280600381526020017f4c544d000000000000000000000000000000000000000000000000000000000081525081600090805190602001906200009692919062000341565b508060019080519060200190620000af92919062000341565b50505033601160006101000a81548173ffffffffffffffffffffffffffffffffffffffff021916908373ffffffffffffffffffffffffffffffffffffffff1602179055506040518060600160405280602d815260200162003506602d91396008600060088110620001255762000124620003f1565b5b0190805190602001906200013b92919062000341565b50604051806060016040528060398152602001620033fc6039913960086001600881106200016e576200016d620003f1565b5b0190805190602001906200018492919062000341565b506040518060600160405280602d815260200162003533602d91396008600260088110620001b757620001b6620003f1565b5b019080519060200190620001cd92919062000341565b506040518060600160405280602f815260200162003560602f913960086003600881106200020057620001ff620003f1565b5b0190805190602001906200021692919062000341565b506040518060600160405280603681526020016200349d603691396008600460088110620002495762000248620003f1565b5b0190805190602001906200025f92919062000341565b50604051806060016040528060338152602001620034d3603391396008600560088110620002925762000291620003f1565b5b019080519060200190620002a892919062000341565b506040518060600160405280602d815260200162003470602d91396008600660088110620002db57620002da620003f1565b5b019080519060200190620002f192919062000341565b506040518060600160405280603b815260200162003435603b91396008600760088110620003245762000323620003f1565b5b0190805190602001906200033a92919062000341565b5062000484565b8280546200034f906200044f565b90600052602060002090601f016020900481019282620003735760008555620003bf565b82601f106200038e57805160ff1916838001178555620003bf565b82800160010185558215620003bf579182015b82811115620003be578251825591602001919060010190620003a1565b5b509050620003ce9190620003d2565b5090565b5b80821115620003ed576000816000905550600101620003d3565b5090565b7f4e487b7100000000000000000000000000000000000000000000000000000000600052603260045260246000fd5b7f4e487b7100000000000000000000000000000000000000000000000000000000600052602260045260246000fd5b600060028204905060018216806200046857607f821691505b6020821081036200047e576200047d62000420565b5b50919050565b612f6880620004946000396000f3fe608060405234801561001057600080fd5b50600436106101165760003560e01c80636352211e116100a2578063a22cb46511610071578063a22cb4651461032b578063b88d4fde14610347578063c87b56dd14610363578063d67262e514610393578063e985e9c5146103af57610116565b80636352211e1461027d57806370a08231146102ad578063901e1c01146102dd57806395d89b411461030d57610116565b806312dc1fb3116100e957806312dc1fb3146101b557806323b872dd146101e55780633bb3a24d1461020157806342842e0e146102315780634f64b2be1461024d57610116565b806301ffc9a71461011b57806306fdde031461014b578063081812fc14610169578063095ea7b314610199575b600080fd5b61013560048036038101906101309190611ca5565b6103df565b6040516101429190611ced565b60405180910390f35b6101536104c1565b6040516101609190611da1565b60405180910390f35b610183600480360381019061017e9190611df9565b610553565b6040516101909190611e67565b60405180910390f35b6101b360048036038101906101ae9190611eae565b6105d8565b005b6101cf60048036038101906101ca9190611df9565b6106ef565b6040516101dc9190611efd565b60405180910390f35b6101ff60048036038101906101fa9190611f18565b61083f565b005b61021b60048036038101906102169190611df9565b61089f565b6040516102289190611da1565b60405180910390f35b61024b60048036038101906102469190611f18565b6108b1565b005b61026760048036038101906102629190611df9565b6108d1565b6040516102749190611efd565b60405180910390f35b61029760048036038101906102929190611df9565b6108f5565b6040516102a49190611e67565b60405180910390f35b6102c760048036038101906102c29190611f6b565b6109a6565b6040516102d49190611efd565b60405180910390f35b6102f760048036038101906102f29190611df9565b610a5d565b6040516103049190611da1565b60405180910390f35b610315610b00565b6040516103229190611da1565b60405180910390f35b61034560048036038101906103409190611fc4565b610b92565b005b610361600480360381019061035c9190612139565b610ba8565b005b61037d60048036038101906103789190611df9565b610c0a565b60405161038a9190611da1565b60405180910390f35b6103ad60048036038101906103a89190611eae565b610d5b565b005b6103c960048036038101906103c491906121bc565b610e1c565b6040516103d69190611ced565b60405180910390f35b60007f80ac58cd000000000000000000000000000000000000000000000000000000007bffffffffffffffffffffffffffffffffffffffffffffffffffffffff1916827bffffffffffffffffffffffffffffffffffffffffffffffffffffffff191614806104aa57507f5b5e139f000000000000000000000000000000000000000000000000000000007bffffffffffffffffffffffffffffffffffffffffffffffffffffffff1916827bffffffffffffffffffffffffffffffffffffffffffffffffffffffff1916145b806104ba57506104b982610eb0565b5b9050919050565b6060600080546104d09061222b565b80601f01602080910402602001604051908101604052809291908181526020018280546104fc9061222b565b80156105495780601f1061051e57610100808354040283529160200191610549565b820191906000526020600020905b81548152906001019060200180831161052c57829003601f168201915b5050505050905090565b600061055e82610f1a565b61059d576040517f08c379a0000000000000000000000000000000000000000000000000000000008152600401610594906122ce565b60405180910390fd5b6004600083815260200190815260200160002060009054906101000a900473ffffffffffffffffffffffffffffffffffffffff169050919050565b60006105e3826108f5565b90508073ffffffffffffffffffffffffffffffffffffffff168373ffffffffffffffffffffffffffffffffffffffff1603610653576040517f08c379a000000000000000000000000000000000000000000000000000000000815260040161064a90612360565b60405180910390fd5b8073ffffffffffffffffffffffffffffffffffffffff16610672610f86565b73ffffffffffffffffffffffffffffffffffffffff1614806106a157506106a08161069b610f86565b610e1c565b5b6106e0576040517f08c379a00000000000000000000000000000000000000000000000000000000081526004016106d7906123f2565b60405180910390fd5b6106ea8383610f8e565b505050565b600080821180156107005750600982105b61073f576040517f08c379a000000000000000000000000000000000000000000000000000000000815260040161073690612484565b60405180910390fd5b600061074b6007611047565b9050610779601160009054906101000a900473ffffffffffffffffffffffffffffffffffffffff1682611055565b61082c81600860018661078c91906124d3565b6008811061079d5761079c612507565b5b0180546107a99061222b565b80601f01602080910402602001604051908101604052809291908181526020018280546107d59061222b565b80156108225780601f106107f757610100808354040283529160200191610822565b820191906000526020600020905b81548152906001019060200180831161080557829003601f168201915b505050505061122e565b61083660076112a2565b80915050919050565b61085061084a610f86565b826112b8565b61088f576040517f08c379a0000000000000000000000000000000000000000000000000000000008152600401610886906125a8565b60405180910390fd5b61089a838383611396565b505050565b60606108aa82610c0a565b9050919050565b6108cc83838360405180602001604052806000815250610ba8565b505050565b601081815481106108e157600080fd5b906000526020600020016000915090505481565b6000806002600084815260200190815260200160002060009054906101000a900473ffffffffffffffffffffffffffffffffffffffff169050600073ffffffffffffffffffffffffffffffffffffffff168173ffffffffffffffffffffffffffffffffffffffff160361099d576040517f08c379a00000000000000000000000000000000000000000000000000000000081526004016109949061263a565b60405180910390fd5b80915050919050565b60008073ffffffffffffffffffffffffffffffffffffffff168273ffffffffffffffffffffffffffffffffffffffff1603610a16576040517f08c379a0000000000000000000000000000000000000000000000000000000008152600401610a0d906126cc565b60405180910390fd5b600360008373ffffffffffffffffffffffffffffffffffffffff1673ffffffffffffffffffffffffffffffffffffffff168152602001908152602001600020549050919050565b60088160088110610a6d57600080fd5b016000915090508054610a7f9061222b565b80601f0160208091040260200160405190810160405280929190818152602001828054610aab9061222b565b8015610af85780601f10610acd57610100808354040283529160200191610af8565b820191906000526020600020905b815481529060010190602001808311610adb57829003601f168201915b505050505081565b606060018054610b0f9061222b565b80601f0160208091040260200160405190810160405280929190818152602001828054610b3b9061222b565b8015610b885780601f10610b5d57610100808354040283529160200191610b88565b820191906000526020600020905b815481529060010190602001808311610b6b57829003601f168201915b5050505050905090565b610ba4610b9d610f86565b83836115fc565b5050565b610bb9610bb3610f86565b836112b8565b610bf8576040517f08c379a0000000000000000000000000000000000000000000000000000000008152600401610bef906125a8565b60405180910390fd5b610c0484848484611768565b50505050565b6060610c1582610f1a565b610c54576040517f08c379a0000000000000000000000000000000000000000000000000000000008152600401610c4b9061275e565b60405180910390fd5b6000600660008481526020019081526020016000208054610c749061222b565b80601f0160208091040260200160405190810160405280929190818152602001828054610ca09061222b565b8015610ced5780601f10610cc257610100808354040283529160200191610ced565b820191906000526020600020905b815481529060010190602001808311610cd057829003601f168201915b505050505090506000610cfe6117c4565b90506000815103610d13578192505050610d56565b600082511115610d48578082604051602001610d309291906127ba565b60405160208183030381529060405292505050610d56565b610d51846117db565b925050505b919050565b601160009054906101000a900473ffffffffffffffffffffffffffffffffffffffff1673ffffffffffffffffffffffffffffffffffffffff163373ffffffffffffffffffffffffffffffffffffffff1614610deb576040517f08c379a0000000000000000000000000000000000000000000000000000000008152600401610de290612850565b60405180910390fd5b610e18601160009054906101000a900473ffffffffffffffffffffffffffffffffffffffff1683836108b1565b5050565b6000600560008473ffffffffffffffffffffffffffffffffffffffff1673ffffffffffffffffffffffffffffffffffffffff16815260200190815260200160002060008373ffffffffffffffffffffffffffffffffffffffff1673ffffffffffffffffffffffffffffffffffffffff16815260200190815260200160002060009054906101000a900460ff16905092915050565b60007f01ffc9a7000000000000000000000000000000000000000000000000000000007bffffffffffffffffffffffffffffffffffffffffffffffffffffffff1916827bffffffffffffffffffffffffffffffffffffffffffffffffffffffff1916149050919050565b60008073ffffffffffffffffffffffffffffffffffffffff166002600084815260200190815260200160002060009054906101000a900473ffffffffffffffffffffffffffffffffffffffff1673ffffffffffffffffffffffffffffffffffffffff1614159050919050565b600033905090565b816004600083815260200190815260200160002060006101000a81548173ffffffffffffffffffffffffffffffffffffffff021916908373ffffffffffffffffffffffffffffffffffffffff160217905550808273ffffffffffffffffffffffffffffffffffffffff16611001836108f5565b73ffffffffffffffffffffffffffffffffffffffff167f8c5be1e5ebec7d5bd14f71427d1e84f3dd0314c0f7b2291e5b200ac8c7c3b92560405160405180910390a45050565b600081600001549050919050565b600073ffffffffffffffffffffffffffffffffffffffff168273ffffffffffffffffffffffffffffffffffffffff16036110c4576040517f08c379a00000000000000000000000000000000000000000000000000000000081526004016110bb906128bc565b60405180910390fd5b6110cd81610f1a565b1561110d576040517f08c379a000000000000000000000000000000000000000000000000000000000815260040161110490612928565b60405180910390fd5b61111960008383611882565b6001600360008473ffffffffffffffffffffffffffffffffffffffff1673ffffffffffffffffffffffffffffffffffffffff16815260200190815260200160002060008282546111699190612948565b92505081905550816002600083815260200190815260200160002060006101000a81548173ffffffffffffffffffffffffffffffffffffffff021916908373ffffffffffffffffffffffffffffffffffffffff160217905550808273ffffffffffffffffffffffffffffffffffffffff16600073ffffffffffffffffffffffffffffffffffffffff167fddf252ad1be2c89b69c2b068fc378daa952ba7f163c4a11628f55a4df523b3ef60405160405180910390a461122a60008383611887565b5050565b61123782610f1a565b611276576040517f08c379a000000000000000000000000000000000000000000000000000000000815260040161126d90612a10565b60405180910390fd5b8060066000848152602001908152602001600020908051906020019061129d929190611b96565b505050565b6001816000016000828254019250508190555050565b60006112c382610f1a565b611302576040517f08c379a00000000000000000000000000000000000000000000000000000000081526004016112f990612aa2565b60405180910390fd5b600061130d836108f5565b90508073ffffffffffffffffffffffffffffffffffffffff168473ffffffffffffffffffffffffffffffffffffffff16148061134f575061134e8185610e1c565b5b8061138d57508373ffffffffffffffffffffffffffffffffffffffff1661137584610553565b73ffffffffffffffffffffffffffffffffffffffff16145b91505092915050565b8273ffffffffffffffffffffffffffffffffffffffff166113b6826108f5565b73ffffffffffffffffffffffffffffffffffffffff161461140c576040517f08c379a000000000000000000000000000000000000000000000000000000000815260040161140390612b34565b60405180910390fd5b600073ffffffffffffffffffffffffffffffffffffffff168273ffffffffffffffffffffffffffffffffffffffff160361147b576040517f08c379a000000000000000000000000000000000000000000000000000000000815260040161147290612bc6565b60405180910390fd5b611486838383611882565b611491600082610f8e565b6001600360008573ffffffffffffffffffffffffffffffffffffffff1673ffffffffffffffffffffffffffffffffffffffff16815260200190815260200160002060008282546114e191906124d3565b925050819055506001600360008473ffffffffffffffffffffffffffffffffffffffff1673ffffffffffffffffffffffffffffffffffffffff16815260200190815260200160002060008282546115389190612948565b92505081905550816002600083815260200190815260200160002060006101000a81548173ffffffffffffffffffffffffffffffffffffffff021916908373ffffffffffffffffffffffffffffffffffffffff160217905550808273ffffffffffffffffffffffffffffffffffffffff168473ffffffffffffffffffffffffffffffffffffffff167fddf252ad1be2c89b69c2b068fc378daa952ba7f163c4a11628f55a4df523b3ef60405160405180910390a46115f7838383611887565b505050565b8173ffffffffffffffffffffffffffffffffffffffff168373ffffffffffffffffffffffffffffffffffffffff160361166a576040517f08c379a000000000000000000000000000000000000000000000000000000000815260040161166190612c32565b60405180910390fd5b80600560008573ffffffffffffffffffffffffffffffffffffffff1673ffffffffffffffffffffffffffffffffffffffff16815260200190815260200160002060008473ffffffffffffffffffffffffffffffffffffffff1673ffffffffffffffffffffffffffffffffffffffff16815260200190815260200160002060006101000a81548160ff0219169083151502179055508173ffffffffffffffffffffffffffffffffffffffff168373ffffffffffffffffffffffffffffffffffffffff167f17307eab39ab6107e8899845ad3d59bd9653f200f220920489ca2b5937696c318360405161175b9190611ced565b60405180910390a3505050565b611773848484611396565b61177f8484848461188c565b6117be576040517f08c379a00000000000000000000000000000000000000000000000000000000081526004016117b590612cc4565b60405180910390fd5b50505050565b606060405180602001604052806000815250905090565b60606117e682610f1a565b611825576040517f08c379a000000000000000000000000000000000000000000000000000000000815260040161181c90612d56565b60405180910390fd5b600061182f6117c4565b9050600081511161184f576040518060200160405280600081525061187a565b8061185984611a13565b60405160200161186a9291906127ba565b6040516020818303038152906040525b915050919050565b505050565b505050565b60006118ad8473ffffffffffffffffffffffffffffffffffffffff16611b73565b15611a06578373ffffffffffffffffffffffffffffffffffffffff1663150b7a026118d6610f86565b8786866040518563ffffffff1660e01b81526004016118f89493929190612dcb565b6020604051808303816000875af192505050801561193457506040513d601f19601f820116820180604052508101906119319190612e2c565b60015b6119b6573d8060008114611964576040519150601f19603f3d011682016040523d82523d6000602084013e611969565b606091505b5060008151036119ae576040517f08c379a00000000000000000000000000000000000000000000000000000000081526004016119a590612cc4565b60405180910390fd5b805181602001fd5b63150b7a0260e01b7bffffffffffffffffffffffffffffffffffffffffffffffffffffffff1916817bffffffffffffffffffffffffffffffffffffffffffffffffffffffff191614915050611a0b565b600190505b949350505050565b606060008203611a5a576040518060400160405280600181526020017f30000000000000000000000000000000000000000000000000000000000000008152509050611b6e565b600082905060005b60008214611a8c578080611a7590612e59565b915050600a82611a859190612ed0565b9150611a62565b60008167ffffffffffffffff811115611aa857611aa761200e565b5b6040519080825280601f01601f191660200182016040528015611ada5781602001600182028036833780820191505090505b5090505b60008514611b6757600182611af391906124d3565b9150600a85611b029190612f01565b6030611b0e9190612948565b60f81b818381518110611b2457611b23612507565b5b60200101907effffffffffffffffffffffffffffffffffffffffffffffffffffffffffffff1916908160001a905350600a85611b609190612ed0565b9450611ade565b8093505050505b919050565b6000808273ffffffffffffffffffffffffffffffffffffffff163b119050919050565b828054611ba29061222b565b90600052602060002090601f016020900481019282611bc45760008555611c0b565b82601f10611bdd57805160ff1916838001178555611c0b565b82800160010185558215611c0b579182015b82811115611c0a578251825591602001919060010190611bef565b5b509050611c189190611c1c565b5090565b5b80821115611c35576000816000905550600101611c1d565b5090565b6000604051905090565b600080fd5b600080fd5b60007fffffffff0000000000000000000000000000000000000000000000000000000082169050919050565b611c8281611c4d565b8114611c8d57600080fd5b50565b600081359050611c9f81611c79565b92915050565b600060208284031215611cbb57611cba611c43565b5b6000611cc984828501611c90565b91505092915050565b60008115159050919050565b611ce781611cd2565b82525050565b6000602082019050611d026000830184611cde565b92915050565b600081519050919050565b600082825260208201905092915050565b60005b83811015611d42578082015181840152602081019050611d27565b83811115611d51576000848401525b50505050565b6000601f19601f8301169050919050565b6000611d7382611d08565b611d7d8185611d13565b9350611d8d818560208601611d24565b611d9681611d57565b840191505092915050565b60006020820190508181036000830152611dbb8184611d68565b905092915050565b6000819050919050565b611dd681611dc3565b8114611de157600080fd5b50565b600081359050611df381611dcd565b92915050565b600060208284031215611e0f57611e0e611c43565b5b6000611e1d84828501611de4565b91505092915050565b600073ffffffffffffffffffffffffffffffffffffffff82169050919050565b6000611e5182611e26565b9050919050565b611e6181611e46565b82525050565b6000602082019050611e7c6000830184611e58565b92915050565b611e8b81611e46565b8114611e9657600080fd5b50565b600081359050611ea881611e82565b92915050565b60008060408385031215611ec557611ec4611c43565b5b6000611ed385828601611e99565b9250506020611ee485828601611de4565b9150509250929050565b611ef781611dc3565b82525050565b6000602082019050611f126000830184611eee565b92915050565b600080600060608486031215611f3157611f30611c43565b5b6000611f3f86828701611e99565b9350506020611f5086828701611e99565b9250506040611f6186828701611de4565b9150509250925092565b600060208284031215611f8157611f80611c43565b5b6000611f8f84828501611e99565b91505092915050565b611fa181611cd2565b8114611fac57600080fd5b50565b600081359050611fbe81611f98565b92915050565b60008060408385031215611fdb57611fda611c43565b5b6000611fe985828601611e99565b9250506020611ffa85828601611faf565b9150509250929050565b600080fd5b600080fd5b7f4e487b7100000000000000000000000000000000000000000000000000000000600052604160045260246000fd5b61204682611d57565b810181811067ffffffffffffffff821117156120655761206461200e565b5b80604052505050565b6000612078611c39565b9050612084828261203d565b919050565b600067ffffffffffffffff8211156120a4576120a361200e565b5b6120ad82611d57565b9050602081019050919050565b82818337600083830152505050565b60006120dc6120d784612089565b61206e565b9050828152602081018484840111156120f8576120f7612009565b5b6121038482856120ba565b509392505050565b600082601f8301126121205761211f612004565b5b81356121308482602086016120c9565b91505092915050565b6000806000806080858703121561215357612152611c43565b5b600061216187828801611e99565b945050602061217287828801611e99565b935050604061218387828801611de4565b925050606085013567ffffffffffffffff8111156121a4576121a3611c48565b5b6121b08782880161210b565b91505092959194509250565b600080604083850312156121d3576121d2611c43565b5b60006121e185828601611e99565b92505060206121f285828601611e99565b9150509250929050565b7f4e487b7100000000000000000000000000000000000000000000000000000000600052602260045260246000fd5b6000600282049050600182168061224357607f821691505b602082108103612256576122556121fc565b5b50919050565b7f4552433732313a20617070726f76656420717565727920666f72206e6f6e657860008201527f697374656e7420746f6b656e0000000000000000000000000000000000000000602082015250565b60006122b8602c83611d13565b91506122c38261225c565b604082019050919050565b600060208201905081810360008301526122e7816122ab565b9050919050565b7f4552433732313a20617070726f76616c20746f2063757272656e74206f776e6560008201527f7200000000000000000000000000000000000000000000000000000000000000602082015250565b600061234a602183611d13565b9150612355826122ee565b604082019050919050565b600060208201905081810360008301526123798161233d565b9050919050565b7f4552433732313a20617070726f76652063616c6c6572206973206e6f74206f7760008201527f6e6572206e6f7220617070726f76656420666f7220616c6c0000000000000000602082015250565b60006123dc603883611d13565b91506123e782612380565b604082019050919050565b6000602082019050818103600083015261240b816123cf565b9050919050565b7f506c6561736520696e73657274206120636f727265637420636c61737320666f60008201527f7220746865207072697a65210000000000000000000000000000000000000000602082015250565b600061246e602c83611d13565b915061247982612412565b604082019050919050565b6000602082019050818103600083015261249d81612461565b9050919050565b7f4e487b7100000000000000000000000000000000000000000000000000000000600052601160045260246000fd5b60006124de82611dc3565b91506124e983611dc3565b9250828210156124fc576124fb6124a4565b5b828203905092915050565b7f4e487b7100000000000000000000000000000000000000000000000000000000600052603260045260246000fd5b7f4552433732313a207472616e736665722063616c6c6572206973206e6f74206f60008201527f776e6572206e6f7220617070726f766564000000000000000000000000000000602082015250565b6000612592603183611d13565b915061259d82612536565b604082019050919050565b600060208201905081810360008301526125c181612585565b9050919050565b7f4552433732313a206f776e657220717565727920666f72206e6f6e657869737460008201527f656e7420746f6b656e0000000000000000000000000000000000000000000000602082015250565b6000612624602983611d13565b915061262f826125c8565b604082019050919050565b6000602082019050818103600083015261265381612617565b9050919050565b7f4552433732313a2062616c616e636520717565727920666f7220746865207a6560008201527f726f206164647265737300000000000000000000000000000000000000000000602082015250565b60006126b6602a83611d13565b91506126c18261265a565b604082019050919050565b600060208201905081810360008301526126e5816126a9565b9050919050565b7f45524337323155524953746f726167653a2055524920717565727920666f722060008201527f6e6f6e6578697374656e7420746f6b656e000000000000000000000000000000602082015250565b6000612748603183611d13565b9150612753826126ec565b604082019050919050565b600060208201905081810360008301526127778161273b565b9050919050565b600081905092915050565b600061279482611d08565b61279e818561277e565b93506127ae818560208601611d24565b80840191505092915050565b60006127c68285612789565b91506127d28284612789565b91508190509392505050565b7f596f7520617265206e6f7420746865206c6f7474657279206f70657261746f7260008201527f2c207065726d697373696f6e2064656e69656421000000000000000000000000602082015250565b600061283a603483611d13565b9150612845826127de565b604082019050919050565b600060208201905081810360008301526128698161282d565b9050919050565b7f4552433732313a206d696e7420746f20746865207a65726f2061646472657373600082015250565b60006128a6602083611d13565b91506128b182612870565b602082019050919050565b600060208201905081810360008301526128d581612899565b9050919050565b7f4552433732313a20746f6b656e20616c7265616479206d696e74656400000000600082015250565b6000612912601c83611d13565b915061291d826128dc565b602082019050919050565b6000602082019050818103600083015261294181612905565b9050919050565b600061295382611dc3565b915061295e83611dc3565b9250827fffffffffffffffffffffffffffffffffffffffffffffffffffffffffffffffff03821115612993576129926124a4565b5b828201905092915050565b7f45524337323155524953746f726167653a2055524920736574206f66206e6f6e60008201527f6578697374656e7420746f6b656e000000000000000000000000000000000000602082015250565b60006129fa602e83611d13565b9150612a058261299e565b604082019050919050565b60006020820190508181036000830152612a29816129ed565b9050919050565b7f4552433732313a206f70657261746f7220717565727920666f72206e6f6e657860008201527f697374656e7420746f6b656e0000000000000000000000000000000000000000602082015250565b6000612a8c602c83611d13565b9150612a9782612a30565b604082019050919050565b60006020820190508181036000830152612abb81612a7f565b9050919050565b7f4552433732313a207472616e736665722066726f6d20696e636f72726563742060008201527f6f776e6572000000000000000000000000000000000000000000000000000000602082015250565b6000612b1e602583611d13565b9150612b2982612ac2565b604082019050919050565b60006020820190508181036000830152612b4d81612b11565b9050919050565b7f4552433732313a207472616e7366657220746f20746865207a65726f2061646460008201527f7265737300000000000000000000000000000000000000000000000000000000602082015250565b6000612bb0602483611d13565b9150612bbb82612b54565b604082019050919050565b60006020820190508181036000830152612bdf81612ba3565b9050919050565b7f4552433732313a20617070726f766520746f2063616c6c657200000000000000600082015250565b6000612c1c601983611d13565b9150612c2782612be6565b602082019050919050565b60006020820190508181036000830152612c4b81612c0f565b9050919050565b7f4552433732313a207472616e7366657220746f206e6f6e20455243373231526560008201527f63656976657220696d706c656d656e7465720000000000000000000000000000602082015250565b6000612cae603283611d13565b9150612cb982612c52565b604082019050919050565b60006020820190508181036000830152612cdd81612ca1565b9050919050565b7f4552433732314d657461646174613a2055524920717565727920666f72206e6f60008201527f6e6578697374656e7420746f6b656e0000000000000000000000000000000000602082015250565b6000612d40602f83611d13565b9150612d4b82612ce4565b604082019050919050565b60006020820190508181036000830152612d6f81612d33565b9050919050565b600081519050919050565b600082825260208201905092915050565b6000612d9d82612d76565b612da78185612d81565b9350612db7818560208601611d24565b612dc081611d57565b840191505092915050565b6000608082019050612de06000830187611e58565b612ded6020830186611e58565b612dfa6040830185611eee565b8181036060830152612e0c8184612d92565b905095945050505050565b600081519050612e2681611c79565b92915050565b600060208284031215612e4257612e41611c43565b5b6000612e5084828501612e17565b91505092915050565b6000612e6482611dc3565b91507fffffffffffffffffffffffffffffffffffffffffffffffffffffffffffffffff8203612e9657612e956124a4565b5b600182019050919050565b7f4e487b7100000000000000000000000000000000000000000000000000000000600052601260045260246000fd5b6000612edb82611dc3565b9150612ee683611dc3565b925082612ef657612ef5612ea1565b5b828204905092915050565b6000612f0c82611dc3565b9150612f1783611dc3565b925082612f2757612f26612ea1565b5b82820690509291505056fea2646970667358221220d94caef6858222688c44f2671c915850259da7e6981c94dc5fcf93bce925b8b064736f6c634300080e003368747470733a2f2f692e6962622e636f2f537654676336572f4772616e64652d4d757261676c69612d43696e6573652d43696e612e7765627068747470733a2f2f692e6962622e636f2f703373634d4b772f372d4d6572617669676c69652d64656c2d6d6f6e646f2d6d6f6465726e6f2e6a706768747470733a2f2f692e6962622e636f2f3634574d6770582f54616a2d4d6168616c2d496e6469612e7765627068747470733a2f2f692e6962622e636f2f7a584e487368542f43726973746f2d526564656e746f72652d42726173696c652e7765627068747470733a2f2f692e6962622e636f2f39484a3038596e2f4368696368652d6e2d49747a612d4d65737369636f2e7765627068747470733a2f2f692e6962622e636f2f5938506e3234672f50657472612d47696f7264616e69612e7765627068747470733a2f2f692e6962622e636f2f4e57397a6e59622f436f6c6f7373656f2d4974616c69612e7765627068747470733a2f2f692e6962622e636f2f4c7a7a6a396a422f4d616368752d5069636368752d506572752e77656270a264697066735822122060c76543fac869e41c9aee48669f1d70dc985f5fc0ac934cd3ab5f6e9d24a7e864736f6c634300080e0033",
  "immutableReferences": {},
  "source": "// SPDX-License-Identifier: MIT\npragma solidity ^0.8.0;\n\nimport \"./LotteryMint.sol\";\n\ncontract Lottery{\n\n    //Data struct to manage player's address and played numbers\n    struct Ticket{\n        address playerAddress;\n        uint [] playedNumbers;\n    }\n\n    uint private constant TICKET_PRICE = 1 ether; \n    address payable public lotteryOperator; //Address of the lottery operator\n    \n    uint public ticketingCloses;\n\n    //Declaration of LotteryMint contract\n    LotteryMint item;\n    \n    //List of NFTs IDs\n    uint256 [8] private NFTList;\n    \n    //Array for sorted winning numbers\n    uint256 [6] private winningNumbers; \n\n    mapping (address => uint256[]) public wonNFTs ;\n    \n    uint8 private previousValue;\n    Ticket [] private tickets;\n    uint public lotteryDuration;\n    uint private DEBUG = 1;\n    uint private K = 11;\n\n    // Events \n    event ticketBuy(address player);\n    event roundClosed();\n    event roundStart();\n    event NFTMinted(address NFTOwner, uint256 newNFTId);\n    event awardPlayer(address player, uint256 prize);\n    event numbersDrawn(uint256[6] winningNumbers);\n    event lotteryClosed();\n    event lotteryStart();\n   \n\n\n    \n    constructor (){}\n\n    //Function to create a new Lottery\n    function startLottery (uint duration) public {\n        lotteryOperator = payable(msg.sender);\n        item = new LotteryMint();\n        ticketingCloses = block.number + duration;\n        lotteryDuration = duration;\n        for(uint i = 1; i < 9; i++){\n            mint(i);\n        }\n        emit lotteryStart();\n    }\n    \n    //Function to buy a new Ticket and to choose numbers to play\n    function buy (uint [] memory numbers) public payable { \n        require(block.number <= ticketingCloses, \"Lottery round already closed, wait for a new round please!\");\n        require(msg.value == TICKET_PRICE, \"Not enough money, Ticket Price --> 1 Ether\"); \n        require(numbers.length == 6, \"Please choose exactly six different numbers!\");\n        Ticket memory newTicket;\n        newTicket.playerAddress = msg.sender;\n        newTicket.playedNumbers = numbers;\n        tickets.push(newTicket);\n        emit ticketBuy(msg.sender);\n    }\n\n    //Function to select and award winners\n    function givePrizes () private {\n        require(msg.sender == lotteryOperator, \"You are not the lottery operator, permission denied!\");\n        require(block.number > ticketingCloses, \"Round still open, please wait lottery round ends!\"); \n\n        uint guessed = 0;\n        uint class = 0;\n        bool powerBall = false;\n        \n        for(uint i = 0; i < tickets.length ;i++){\n            Ticket memory player = tickets[i];\n            for(uint j = 0; j < player.playedNumbers.length - 1 ; j++){\n                uint num = player.playedNumbers[j];\n                for(uint k = 0; k < 5; k++){\n                    if(num == winningNumbers[k]){\n                        guessed++;\n                    }\n                }\n            }\n            if(player.playedNumbers[5] == winningNumbers[5]){\n                powerBall = true;\n            }\n            class = uint(selectClass(guessed,powerBall));\n\n            if(class > 0){\n                item.sendNFT(player.playerAddress, NFTList[class - 1]);\n                emit awardPlayer(player.playerAddress, NFTList[class - 1]);\n                wonNFTs[player.playerAddress].push(NFTList[class - 1]); \n                mint(class);\n            }\n            powerBall = false;\n            guessed = 0;\n        }\n    }\n\n    //Function used to select correct prize class\n    function selectClass (uint guessed, bool powerBall) private pure returns(uint) {\n        uint prize = 0;\n        \n        if(guessed == 0 && powerBall){\n            prize = 8;\n        }else{\n            if(guessed == 1 && !powerBall){\n                prize = 7;\n            }else{\n                if(guessed == 2 && !powerBall || (guessed == 1 && powerBall)){\n                    prize = 6;\n                }else{\n                    if(guessed == 3 && !powerBall || (guessed == 2 && powerBall)){\n                        prize = 5;\n                    }else{\n                        if(guessed == 4 && !powerBall || (guessed == 3 && powerBall)){\n                            prize = 4;\n                        }else{\n                            if(guessed == 4 && powerBall){\n                                prize = 3;\n                            }else{\n                                if(guessed == 5 && !powerBall){\n                                    prize = 2;\n                                }else{\n                                    if(guessed == 5 && powerBall){\n                                        prize = 1;\n                                    }\n                                }\n                            }\n                        }\n                    }\n                }\n            }\n        }\n        return prize;\n    }\n    //Function used to start a new lottery round\n    function startNewRound () public {\n        require(msg.sender == lotteryOperator, \"You are not the lottery operator, permission denied!\");\n        require(block.number > ticketingCloses, \"Round still open, please wait lottery round ends!\");\n        delete winningNumbers;\n        delete tickets;\n        ticketingCloses = block.number + lotteryDuration;\n        emit roundStart();\n    }\n\n    //Function for lottery operator to draw winning numbers\n    function drawNumbers () private {\n        if(DEBUG == 1){\n        for (uint i = 0; i < 5; i++){\n            winningNumbers[i] = i+1;\n        }\n        winningNumbers[5] = 6;\n        }else{\n        require(msg.sender == lotteryOperator, \"You are not the lottery operator, permission denied!\");\n        require(block.number > ticketingCloses, \"Round still open, please wait lottery round ends!\"); \n        for (uint i = 0; i < 6; i++){\n            \n            if(i == 5){\n                winningNumbers[i] = rand(26);\n            }\n            else{\n                winningNumbers[i] = rand(69);\n            }\n            for(uint j = 0; j <= i; j++){\n                if(winningNumbers[i] == winningNumbers[j] && i != 5){\n                    winningNumbers[i] = rand(69);\n                }\n                if(winningNumbers[i] == winningNumbers[j] && i == 5){\n                    winningNumbers[i] = rand(26);\n                }\n            }\n        }\n        }\n\n        emit numbersDrawn(winningNumbers);\n    }\n\n    //Function used draw numbers and give prizes. Only the lottery operator can call this function.\n    function closeRound () public{\n        require(msg.sender == lotteryOperator, \"You are not the lottery operator, permission denied!\");\n        require(block.number >= ticketingCloses, \"Round still open, please wait lottery round ends!\"); \n        drawNumbers();\n        givePrizes();\n        withdraw();\n        emit roundClosed();\n    }\n\n    //Function used to close the Lottery and deactivate  the contract\n    function closeLottery () public {\n        require(msg.sender == lotteryOperator, \"You are not the lottery operator, permission denied!\");\n        address payable refunded;\n        if (block.number <= ticketingCloses){\n            for (uint i = 0; i < tickets.length ;i++){\n                refunded = payable(tickets[i].playerAddress);\n                refunded.transfer(TICKET_PRICE);\n            }\n        }\n        emit lotteryClosed();\n        selfdestruct(payable(msg.sender));\n    }\n\n    //Function used to mint a new NFT\n    function mint (uint class) private{\n        require(msg.sender == lotteryOperator, \"You are not the lottery operator, permission denied!\");\n        uint256 NFT_ID = uint256(item.awardItem(class));\n        NFTList[class - 1] = NFT_ID;\n        emit NFTMinted(msg.sender, NFT_ID);\n    }\n    \n    //Function used by the lottery operator to send contract balance to  the lottery operator's address\n    function withdraw () private { \n        require(msg.sender == lotteryOperator, \"You are not the lottery operator, permission denied!\");\n        require(block.number > ticketingCloses, \"Round still open, please wait lottery round ends!\"); \n        lotteryOperator.transfer(address(this).balance);\n     }\n\n    //Function used to deterministically extract pseudo-random winning numbers for the lottery\n    function rand(uint modulus) private returns (uint8) {\n        previousValue = uint8((uint256(keccak256(abi.encodePacked(block.number + K + block.timestamp, previousValue))))% modulus);\n        K += 1;\n        return previousValue;\n    }\n    \n    //Function used to get URI linked to minted NFT;\n    function getURI(uint256 tokenID) view public returns (string memory){\n        return item.getTokenURI(tokenID);\n    }\n\n    function getNFTList(address player) view public returns (uint256[] memory){\n        return wonNFTs[player];\n    }\n}\n\n",
  "sourcePath": "/Users/Koto/Documents/Unipi/P2P/Final Project/Final Project/P2P-Final_Project/contracts/Lottery.sol",
  "compiler": {
    "name": "solc",
    "version": "0.8.14+commit.80d49f37.Emscripten.clang"
  },
  "schemaVersion": "3.4.7",
  "updatedAt": "2022-07-11T10:02:04.779Z",
  "networkType": "ethereum",
  "devdoc": {
    "kind": "dev",
    "methods": {},
    "version": 1
  },
  "userdoc": {
    "kind": "user",
    "methods": {},
    "version": 1
  }
}