{
  "contractName": "Lottery",
  "abi": [
    {
      "inputs": [
        {
          "internalType": "uint256",
          "name": "duration",
          "type": "uint256"
        }
      ],
      "stateMutability": "nonpayable",
      "type": "constructor"
    },
    {
      "anonymous": false,
      "inputs": [
        {
          "indexed": false,
          "internalType": "address",
          "name": "NFTOwner",
          "type": "address"
        },
        {
          "indexed": false,
          "internalType": "uint256",
          "name": "newNFTId",
          "type": "uint256"
        }
      ],
      "name": "NFTMinted",
      "type": "event"
    },
    {
      "anonymous": false,
      "inputs": [
        {
          "indexed": false,
          "internalType": "address",
          "name": "player",
          "type": "address"
        },
        {
          "indexed": false,
          "internalType": "uint256",
          "name": "prize",
          "type": "uint256"
        }
      ],
      "name": "awardPlayer",
      "type": "event"
    },
    {
      "anonymous": false,
      "inputs": [],
      "name": "lotteryClosed",
      "type": "event"
    },
    {
      "anonymous": false,
      "inputs": [],
      "name": "numbersDrawn",
      "type": "event"
    },
    {
      "anonymous": false,
      "inputs": [],
      "name": "roundClosed",
      "type": "event"
    },
    {
      "anonymous": false,
      "inputs": [],
      "name": "roundStart",
      "type": "event"
    },
    {
      "anonymous": false,
      "inputs": [
        {
          "indexed": false,
          "internalType": "address",
          "name": "player",
          "type": "address"
        }
      ],
      "name": "ticketBuy",
      "type": "event"
    },
    {
      "inputs": [
        {
          "internalType": "uint256[]",
          "name": "numbers",
          "type": "uint256[]"
        }
      ],
      "name": "buy",
      "outputs": [],
      "stateMutability": "payable",
      "type": "function"
    },
    {
      "inputs": [],
      "name": "startNewRound",
      "outputs": [],
      "stateMutability": "nonpayable",
      "type": "function"
    },
    {
      "inputs": [],
      "name": "closeRound",
      "outputs": [],
      "stateMutability": "nonpayable",
      "type": "function"
    },
    {
      "inputs": [],
      "name": "closeLottery",
      "outputs": [],
      "stateMutability": "nonpayable",
      "type": "function"
    }
  ],
  "bytecode": "0x6080604052600060145560026015553480156200001b57600080fd5b506040516200584b3803806200584b833981810160405281019062000041919062000338565b336000806101000a81548173ffffffffffffffffffffffffffffffffffffffff021916908373ffffffffffffffffffffffffffffffffffffffff1602179055506040516200008f90620002ea565b604051809103906000f080158015620000ac573d6000803e3d6000fd5b50600260006101000a81548173ffffffffffffffffffffffffffffffffffffffff021916908373ffffffffffffffffffffffffffffffffffffffff1602179055508043620000fb919062000399565b600181905550806013819055506000600190505b600981101562000140576200012a816200014860201b60201c565b80806200013790620003f6565b9150506200010f565b5050620005f6565b60008054906101000a900473ffffffffffffffffffffffffffffffffffffffff1673ffffffffffffffffffffffffffffffffffffffff163373ffffffffffffffffffffffffffffffffffffffff1614620001d9576040517f08c379a0000000000000000000000000000000000000000000000000000000008152600401620001d090620004ca565b60405180910390fd5b6000600260009054906101000a900473ffffffffffffffffffffffffffffffffffffffff1673ffffffffffffffffffffffffffffffffffffffff166312dc1fb3836040518263ffffffff1660e01b8152600401620002389190620004fd565b6020604051808303816000875af115801562000258573d6000803e3d6000fd5b505050506040513d601f19601f820116820180604052508101906200027e919062000338565b90508060036001846200029291906200051a565b60088110620002a657620002a562000555565b5b01819055507f4cc0a9c4a99ddc700de1af2c9f916a7cbfdb71f14801ccff94061ad1ef8a80403382604051620002de929190620005c9565b60405180910390a15050565b61372a806200212183390190565b600080fd5b6000819050919050565b6200031281620002fd565b81146200031e57600080fd5b50565b600081519050620003328162000307565b92915050565b600060208284031215620003515762000350620002f8565b5b6000620003618482850162000321565b91505092915050565b7f4e487b7100000000000000000000000000000000000000000000000000000000600052601160045260246000fd5b6000620003a682620002fd565b9150620003b383620002fd565b9250827fffffffffffffffffffffffffffffffffffffffffffffffffffffffffffffffff03821115620003eb57620003ea6200036a565b5b828201905092915050565b60006200040382620002fd565b91507fffffffffffffffffffffffffffffffffffffffffffffffffffffffffffffffff82036200043857620004376200036a565b5b600182019050919050565b600082825260208201905092915050565b7f596f7520617265206e6f7420746865206c6f7474657279206f70657261746f7260008201527f2c207065726d697373696f6e2064656e69656421000000000000000000000000602082015250565b6000620004b260348362000443565b9150620004bf8262000454565b604082019050919050565b60006020820190508181036000830152620004e581620004a3565b9050919050565b620004f781620002fd565b82525050565b6000602082019050620005146000830184620004ec565b92915050565b60006200052782620002fd565b91506200053483620002fd565b9250828210156200054a57620005496200036a565b5b828203905092915050565b7f4e487b7100000000000000000000000000000000000000000000000000000000600052603260045260246000fd5b600073ffffffffffffffffffffffffffffffffffffffff82169050919050565b6000620005b18262000584565b9050919050565b620005c381620005a4565b82525050565b6000604082019050620005e06000830185620005b8565b620005ef6020830184620004ec565b9392505050565b611b1b80620006066000396000f3fe60806040526004361061003f5760003560e01c80636fd0981614610044578063bd85948c1461005b578063c243c72b14610072578063e278fe6f1461008e575b600080fd5b34801561005057600080fd5b506100596100a5565b005b34801561006757600080fd5b5061007061023f565b005b61008c600480360381019061008791906114a0565b61036f565b005b34801561009a57600080fd5b506100a3610557565b005b60008054906101000a900473ffffffffffffffffffffffffffffffffffffffff1673ffffffffffffffffffffffffffffffffffffffff163373ffffffffffffffffffffffffffffffffffffffff1614610133576040517f08c379a000000000000000000000000000000000000000000000000000000000815260040161012a9061156c565b60405180910390fd5b600060015443116101fa5760005b6012805490508110156101f857601281815481106101625761016161158c565b5b906000526020600020906002020160000160009054906101000a900473ffffffffffffffffffffffffffffffffffffffff1691508173ffffffffffffffffffffffffffffffffffffffff166108fc670de0b6b3a76400009081150290604051600060405180830381858888f193505050501580156101e4573d6000803e3d6000fd5b5080806101f0906115ea565b915050610141565b505b7fe433a584fae9b834f255a3d9575f0aa3eee032236d342820321d44dc44100e3660405160405180910390a13373ffffffffffffffffffffffffffffffffffffffff16ff5b60008054906101000a900473ffffffffffffffffffffffffffffffffffffffff1673ffffffffffffffffffffffffffffffffffffffff163373ffffffffffffffffffffffffffffffffffffffff16146102cd576040517f08c379a00000000000000000000000000000000000000000000000000000000081526004016102c49061156c565b60405180910390fd5b6001544311610311576040517f08c379a0000000000000000000000000000000000000000000000000000000008152600401610308906116a4565b60405180910390fd5b600b600061031f91906111bd565b6012600061032d91906111d0565b6013544361033b91906116c4565b6001819055507f4036585281c48b34c372f9f4876591ae9b9b2ad9a4fdd74c07ecc83b7dd4539160405160405180910390a1565b60015443106103b3576040517f08c379a00000000000000000000000000000000000000000000000000000000081526004016103aa9061178c565b60405180910390fd5b670de0b6b3a764000034146103fd576040517f08c379a00000000000000000000000000000000000000000000000000000000081526004016103f49061181e565b60405180910390fd5b6006815114610441576040517f08c379a0000000000000000000000000000000000000000000000000000000008152600401610438906118b0565b60405180910390fd5b6104496111f4565b33816000019073ffffffffffffffffffffffffffffffffffffffff16908173ffffffffffffffffffffffffffffffffffffffff1681525050818160200181905250601281908060018154018082558091505060019003906000526020600020906002020160009091909190915060008201518160000160006101000a81548173ffffffffffffffffffffffffffffffffffffffff021916908373ffffffffffffffffffffffffffffffffffffffff1602179055506020820151816001019080519060200190610519929190611224565b5050507f52f69303e6fb6d81ee7b4f1083a81e2c91f2602b5a6d41755447408c59e78e933360405161054b9190611911565b60405180910390a15050565b60008054906101000a900473ffffffffffffffffffffffffffffffffffffffff1673ffffffffffffffffffffffffffffffffffffffff163373ffffffffffffffffffffffffffffffffffffffff16146105e5576040517f08c379a00000000000000000000000000000000000000000000000000000000081526004016105dc9061156c565b60405180910390fd5b6001544311610629576040517f08c379a0000000000000000000000000000000000000000000000000000000008152600401610620906116a4565b60405180910390fd5b61063161066f565b610639610944565b610641610d3c565b7f3b26a4da5d78f693f5660820eda07ddaa2130a9b9a0e49c553d5089fb1a42a1860405160405180910390a1565b6001601454036106e05760005b60058110156106be5760018161069291906116c4565b600b82600681106106a6576106a561158c565b5b018190555080806106b6906115ea565b91505061067c565b506006600b6005600681106106d6576106d561158c565b5b0181905550610916565b60008054906101000a900473ffffffffffffffffffffffffffffffffffffffff1673ffffffffffffffffffffffffffffffffffffffff163373ffffffffffffffffffffffffffffffffffffffff161461076e576040517f08c379a00000000000000000000000000000000000000000000000000000000081526004016107659061156c565b60405180910390fd5b60015443116107b2576040517f08c379a00000000000000000000000000000000000000000000000000000000081526004016107a9906116a4565b60405180910390fd5b60005b600681101561091457600581036107f1576107d0601a610e77565b60ff16600b82600681106107e7576107e661158c565b5b0181905550610818565b6107fb6045610e77565b60ff16600b82600681106108125761081161158c565b5b01819055505b60005b81811161090057600b81600681106108365761083561158c565b5b0154600b836006811061084c5761084b61158c565b5b015414801561085c575060058214155b156108885761086b6045610e77565b60ff16600b83600681106108825761088161158c565b5b01819055505b600b816006811061089c5761089b61158c565b5b0154600b83600681106108b2576108b161158c565b5b01541480156108c15750600582145b156108ed576108d0601a610e77565b60ff16600b83600681106108e7576108e661158c565b5b01819055505b80806108f8906115ea565b91505061081b565b50808061090c906115ea565b9150506107b5565b505b7f325d956fe842cf8852a1cef16bb9a011c74bd9b75410db2b4e728b9ac8193f5960405160405180910390a1565b60008054906101000a900473ffffffffffffffffffffffffffffffffffffffff1673ffffffffffffffffffffffffffffffffffffffff163373ffffffffffffffffffffffffffffffffffffffff16146109d2576040517f08c379a00000000000000000000000000000000000000000000000000000000081526004016109c99061156c565b60405180910390fd5b6001544311610a16576040517f08c379a0000000000000000000000000000000000000000000000000000000008152600401610a0d906116a4565b60405180910390fd5b6000806000805b601280549050811015610d3657600060128281548110610a4057610a3f61158c565b5b90600052602060002090600202016040518060400160405290816000820160009054906101000a900473ffffffffffffffffffffffffffffffffffffffff1673ffffffffffffffffffffffffffffffffffffffff1673ffffffffffffffffffffffffffffffffffffffff16815260200160018201805480602002602001604051908101604052809291908181526020018280548015610afe57602002820191906000526020600020905b815481526020019060010190808311610aea575b505050505081525050905060005b6001826020015151610b1e919061192c565b811015610ba757600082602001518281518110610b3e57610b3d61158c565b5b6020026020010151905060005b6005811015610b9257600b8160068110610b6857610b6761158c565b5b01548203610b7f578780610b7b906115ea565b9850505b8080610b8a906115ea565b915050610b4b565b50508080610b9f906115ea565b915050610b0c565b50600b600560068110610bbd57610bbc61158c565b5b01548160200151600581518110610bd757610bd661158c565b5b602002602001015103610be957600192505b610bf38584610efd565b93506000841115610d1a57600260009054906101000a900473ffffffffffffffffffffffffffffffffffffffff1673ffffffffffffffffffffffffffffffffffffffff1663d67262e582600001516003600188610c50919061192c565b60088110610c6157610c6061158c565b5b01546040518363ffffffff1660e01b8152600401610c8092919061196f565b600060405180830381600087803b158015610c9a57600080fd5b505af1158015610cae573d6000803e3d6000fd5b505050507f85f245a8896816198b5a16a3f6b9d0a1cb408bec301f40a31deb443e890a967681600001516003600187610ce7919061192c565b60088110610cf857610cf761158c565b5b0154604051610d0892919061196f565b60405180910390a1610d198461102a565b5b6000925060009450508080610d2e906115ea565b915050610a1d565b50505050565b60008054906101000a900473ffffffffffffffffffffffffffffffffffffffff1673ffffffffffffffffffffffffffffffffffffffff163373ffffffffffffffffffffffffffffffffffffffff1614610dca576040517f08c379a0000000000000000000000000000000000000000000000000000000008152600401610dc19061156c565b60405180910390fd5b6001544311610e0e576040517f08c379a0000000000000000000000000000000000000000000000000000000008152600401610e05906116a4565b60405180910390fd5b60008054906101000a900473ffffffffffffffffffffffffffffffffffffffff1673ffffffffffffffffffffffffffffffffffffffff166108fc479081150290604051600060405180830381858888f19350505050158015610e74573d6000803e3d6000fd5b50565b60008160155443610e8891906116c4565b601160009054906101000a900460ff16604051602001610ea99291906119fc565b6040516020818303038152906040528051906020012060001c610ecc9190611a57565b601160006101000a81548160ff021916908360ff160217905550601160009054906101000a900460ff169050919050565b60008060009050600084148015610f115750825b15610f1f5760089050611020565b600184148015610f2d575082155b15610f3b576007905061101f565b600284148015610f49575082155b80610f5d5750600184148015610f5c5750825b5b15610f6b576006905061101e565b600384148015610f79575082155b80610f8d5750600284148015610f8c5750825b5b15610f9b576005905061101d565b600484148015610fa9575082155b80610fbd5750600384148015610fbc5750825b5b15610fcb576004905061101c565b600484148015610fd85750825b15610fe6576003905061101b565b600584148015610ff4575082155b15611002576002905061101a565b60058414801561100f5750825b1561101957600190505b5b5b5b5b5b5b5b8091505092915050565b60008054906101000a900473ffffffffffffffffffffffffffffffffffffffff1673ffffffffffffffffffffffffffffffffffffffff163373ffffffffffffffffffffffffffffffffffffffff16146110b8576040517f08c379a00000000000000000000000000000000000000000000000000000000081526004016110af9061156c565b60405180910390fd5b6000600260009054906101000a900473ffffffffffffffffffffffffffffffffffffffff1673ffffffffffffffffffffffffffffffffffffffff166312dc1fb3836040518263ffffffff1660e01b81526004016111159190611a88565b6020604051808303816000875af1158015611134573d6000803e3d6000fd5b505050506040513d601f19601f820116820180604052508101906111589190611ab8565b905080600360018461116a919061192c565b6008811061117b5761117a61158c565b5b01819055507f4cc0a9c4a99ddc700de1af2c9f916a7cbfdb71f14801ccff94061ad1ef8a804033826040516111b192919061196f565b60405180910390a15050565b5080600601906111cd9190611271565b50565b50805460008255600202906000526020600020908101906111f1919061128e565b50565b6040518060400160405280600073ffffffffffffffffffffffffffffffffffffffff168152602001606081525090565b828054828255906000526020600020908101928215611260579160200282015b8281111561125f578251825591602001919060010190611244565b5b50905061126d9190611271565b5090565b5b8082111561128a576000816000905550600101611272565b5090565b5b808211156112d857600080820160006101000a81549073ffffffffffffffffffffffffffffffffffffffff02191690556001820160006112cf91906112dc565b5060020161128f565b5090565b50805460008255906000526020600020908101906112fa9190611271565b50565b6000604051905090565b600080fd5b600080fd5b600080fd5b6000601f19601f8301169050919050565b7f4e487b7100000000000000000000000000000000000000000000000000000000600052604160045260246000fd5b61135f82611316565b810181811067ffffffffffffffff8211171561137e5761137d611327565b5b80604052505050565b60006113916112fd565b905061139d8282611356565b919050565b600067ffffffffffffffff8211156113bd576113bc611327565b5b602082029050602081019050919050565b600080fd5b6000819050919050565b6113e6816113d3565b81146113f157600080fd5b50565b600081359050611403816113dd565b92915050565b600061141c611417846113a2565b611387565b9050808382526020820190506020840283018581111561143f5761143e6113ce565b5b835b81811015611468578061145488826113f4565b845260208401935050602081019050611441565b5050509392505050565b600082601f83011261148757611486611311565b5b8135611497848260208601611409565b91505092915050565b6000602082840312156114b6576114b5611307565b5b600082013567ffffffffffffffff8111156114d4576114d361130c565b5b6114e084828501611472565b91505092915050565b600082825260208201905092915050565b7f596f7520617265206e6f7420746865206c6f7474657279206f70657261746f7260008201527f2c207065726d697373696f6e2064656e69656421000000000000000000000000602082015250565b60006115566034836114e9565b9150611561826114fa565b604082019050919050565b6000602082019050818103600083015261158581611549565b9050919050565b7f4e487b7100000000000000000000000000000000000000000000000000000000600052603260045260246000fd5b7f4e487b7100000000000000000000000000000000000000000000000000000000600052601160045260246000fd5b60006115f5826113d3565b91507fffffffffffffffffffffffffffffffffffffffffffffffffffffffffffffffff8203611627576116266115bb565b5b600182019050919050565b7f526f756e64207374696c6c206f70656e2c20706c656173652077616974206c6f60008201527f747465727920726f756e6420656e647321000000000000000000000000000000602082015250565b600061168e6031836114e9565b915061169982611632565b604082019050919050565b600060208201905081810360008301526116bd81611681565b9050919050565b60006116cf826113d3565b91506116da836113d3565b9250827fffffffffffffffffffffffffffffffffffffffffffffffffffffffffffffffff0382111561170f5761170e6115bb565b5b828201905092915050565b7f4c6f747465727920726f756e6420616c726561647920636c6f7365642c20776160008201527f697420666f722061206e657720726f756e6420706c6561736521000000000000602082015250565b6000611776603a836114e9565b91506117818261171a565b604082019050919050565b600060208201905081810360008301526117a581611769565b9050919050565b7f4e6f7420656e6f756768206d6f6e65792c205469636b6574205072696365202d60008201527f2d3e203120457468657200000000000000000000000000000000000000000000602082015250565b6000611808602a836114e9565b9150611813826117ac565b604082019050919050565b60006020820190508181036000830152611837816117fb565b9050919050565b7f506c656173652063686f6f73652065786163746c79207369782064696666657260008201527f656e74206e756d62657273210000000000000000000000000000000000000000602082015250565b600061189a602c836114e9565b91506118a58261183e565b604082019050919050565b600060208201905081810360008301526118c98161188d565b9050919050565b600073ffffffffffffffffffffffffffffffffffffffff82169050919050565b60006118fb826118d0565b9050919050565b61190b816118f0565b82525050565b60006020820190506119266000830184611902565b92915050565b6000611937826113d3565b9150611942836113d3565b925082821015611955576119546115bb565b5b828203905092915050565b611969816113d3565b82525050565b60006040820190506119846000830185611902565b6119916020830184611960565b9392505050565b6000819050919050565b6119b36119ae826113d3565b611998565b82525050565b600060ff82169050919050565b60008160f81b9050919050565b60006119de826119c6565b9050919050565b6119f66119f1826119b9565b6119d3565b82525050565b6000611a0882856119a2565b602082019150611a1882846119e5565b6001820191508190509392505050565b7f4e487b7100000000000000000000000000000000000000000000000000000000600052601260045260246000fd5b6000611a62826113d3565b9150611a6d836113d3565b925082611a7d57611a7c611a28565b5b828206905092915050565b6000602082019050611a9d6000830184611960565b92915050565b600081519050611ab2816113dd565b92915050565b600060208284031215611ace57611acd611307565b5b6000611adc84828501611aa3565b9150509291505056fea26469706673582212208b6ac46eaf1045d9cc7c12916262ebaa6e610eda6756be5bbd3148a6f26b3f3c64736f6c634300080e003360806040523480156200001157600080fd5b506040518060400160405280600b81526020017f4c6f74746572794d696e740000000000000000000000000000000000000000008152506040518060400160405280600381526020017f4c544d000000000000000000000000000000000000000000000000000000000081525081600090805190602001906200009692919062000341565b508060019080519060200190620000af92919062000341565b50505033601160006101000a81548173ffffffffffffffffffffffffffffffffffffffff021916908373ffffffffffffffffffffffffffffffffffffffff1602179055506040518060a001604052806066815260200162003428606691396008600060088110620001255762000124620003f1565b5b0190805190602001906200013b92919062000341565b506040518060a0016040528060768152602001620035756076913960086001600881106200016e576200016d620003f1565b5b0190805190602001906200018492919062000341565b506040518060a0016040528060668152602001620035eb606691396008600260088110620001b757620001b6620003f1565b5b019080519060200190620001cd92919062000341565b506040518060a0016040528060708152602001620035056070913960086003600881106200020057620001ff620003f1565b5b0190805190602001906200021692919062000341565b506040518060a001604052806071815260200162003651607191396008600460088110620002495762000248620003f1565b5b0190805190602001906200025f92919062000341565b506040518060a0016040528060798152602001620033af607991396008600560088110620002925762000291620003f1565b5b019080519060200190620002a892919062000341565b506040518060a0016040528060688152602001620036c2606891396008600660088110620002db57620002da620003f1565b5b019080519060200190620002f192919062000341565b506040518060a00160405280607781526020016200348e607791396008600760088110620003245762000323620003f1565b5b0190805190602001906200033a92919062000341565b5062000484565b8280546200034f906200044f565b90600052602060002090601f016020900481019282620003735760008555620003bf565b82601f106200038e57805160ff1916838001178555620003bf565b82800160010185558215620003bf579182015b82811115620003be578251825591602001919060010190620003a1565b5b509050620003ce9190620003d2565b5090565b5b80821115620003ed576000816000905550600101620003d3565b5090565b7f4e487b7100000000000000000000000000000000000000000000000000000000600052603260045260246000fd5b7f4e487b7100000000000000000000000000000000000000000000000000000000600052602260045260246000fd5b600060028204905060018216806200046857607f821691505b6020821081036200047e576200047d62000420565b5b50919050565b612f1b80620004946000396000f3fe608060405234801561001057600080fd5b506004361061010b5760003560e01c80636352211e116100a2578063a22cb46511610071578063a22cb465146102f0578063b88d4fde1461030c578063c87b56dd14610328578063d67262e514610358578063e985e9c5146103745761010b565b80636352211e1461024257806370a0823114610272578063901e1c01146102a257806395d89b41146102d25761010b565b806312dc1fb3116100de57806312dc1fb3146101aa57806323b872dd146101da57806342842e0e146101f65780634f64b2be146102125761010b565b806301ffc9a71461011057806306fdde0314610140578063081812fc1461015e578063095ea7b31461018e575b600080fd5b61012a60048036038101906101259190611c58565b6103a4565b6040516101379190611ca0565b60405180910390f35b610148610486565b6040516101559190611d54565b60405180910390f35b61017860048036038101906101739190611dac565b610518565b6040516101859190611e1a565b60405180910390f35b6101a860048036038101906101a39190611e61565b61059d565b005b6101c460048036038101906101bf9190611dac565b6106b4565b6040516101d19190611eb0565b60405180910390f35b6101f460048036038101906101ef9190611ecb565b610804565b005b610210600480360381019061020b9190611ecb565b610864565b005b61022c60048036038101906102279190611dac565b610884565b6040516102399190611eb0565b60405180910390f35b61025c60048036038101906102579190611dac565b6108a8565b6040516102699190611e1a565b60405180910390f35b61028c60048036038101906102879190611f1e565b610959565b6040516102999190611eb0565b60405180910390f35b6102bc60048036038101906102b79190611dac565b610a10565b6040516102c99190611d54565b60405180910390f35b6102da610ab3565b6040516102e79190611d54565b60405180910390f35b61030a60048036038101906103059190611f77565b610b45565b005b610326600480360381019061032191906120ec565b610b5b565b005b610342600480360381019061033d9190611dac565b610bbd565b60405161034f9190611d54565b60405180910390f35b610372600480360381019061036d9190611e61565b610d0e565b005b61038e6004803603810190610389919061216f565b610dcf565b60405161039b9190611ca0565b60405180910390f35b60007f80ac58cd000000000000000000000000000000000000000000000000000000007bffffffffffffffffffffffffffffffffffffffffffffffffffffffff1916827bffffffffffffffffffffffffffffffffffffffffffffffffffffffff1916148061046f57507f5b5e139f000000000000000000000000000000000000000000000000000000007bffffffffffffffffffffffffffffffffffffffffffffffffffffffff1916827bffffffffffffffffffffffffffffffffffffffffffffffffffffffff1916145b8061047f575061047e82610e63565b5b9050919050565b606060008054610495906121de565b80601f01602080910402602001604051908101604052809291908181526020018280546104c1906121de565b801561050e5780601f106104e35761010080835404028352916020019161050e565b820191906000526020600020905b8154815290600101906020018083116104f157829003601f168201915b5050505050905090565b600061052382610ecd565b610562576040517f08c379a000000000000000000000000000000000000000000000000000000000815260040161055990612281565b60405180910390fd5b6004600083815260200190815260200160002060009054906101000a900473ffffffffffffffffffffffffffffffffffffffff169050919050565b60006105a8826108a8565b90508073ffffffffffffffffffffffffffffffffffffffff168373ffffffffffffffffffffffffffffffffffffffff1603610618576040517f08c379a000000000000000000000000000000000000000000000000000000000815260040161060f90612313565b60405180910390fd5b8073ffffffffffffffffffffffffffffffffffffffff16610637610f39565b73ffffffffffffffffffffffffffffffffffffffff161480610666575061066581610660610f39565b610dcf565b5b6106a5576040517f08c379a000000000000000000000000000000000000000000000000000000000815260040161069c906123a5565b60405180910390fd5b6106af8383610f41565b505050565b600080821180156106c55750600982105b610704576040517f08c379a00000000000000000000000000000000000000000000000000000000081526004016106fb90612437565b60405180910390fd5b60006107106007610ffa565b905061073e601160009054906101000a900473ffffffffffffffffffffffffffffffffffffffff1682611008565b6107f18160086001866107519190612486565b60088110610762576107616124ba565b5b01805461076e906121de565b80601f016020809104026020016040519081016040528092919081815260200182805461079a906121de565b80156107e75780601f106107bc576101008083540402835291602001916107e7565b820191906000526020600020905b8154815290600101906020018083116107ca57829003601f168201915b50505050506111e1565b6107fb6007611255565b80915050919050565b61081561080f610f39565b8261126b565b610854576040517f08c379a000000000000000000000000000000000000000000000000000000000815260040161084b9061255b565b60405180910390fd5b61085f838383611349565b505050565b61087f83838360405180602001604052806000815250610b5b565b505050565b6010818154811061089457600080fd5b906000526020600020016000915090505481565b6000806002600084815260200190815260200160002060009054906101000a900473ffffffffffffffffffffffffffffffffffffffff169050600073ffffffffffffffffffffffffffffffffffffffff168173ffffffffffffffffffffffffffffffffffffffff1603610950576040517f08c379a0000000000000000000000000000000000000000000000000000000008152600401610947906125ed565b60405180910390fd5b80915050919050565b60008073ffffffffffffffffffffffffffffffffffffffff168273ffffffffffffffffffffffffffffffffffffffff16036109c9576040517f08c379a00000000000000000000000000000000000000000000000000000000081526004016109c09061267f565b60405180910390fd5b600360008373ffffffffffffffffffffffffffffffffffffffff1673ffffffffffffffffffffffffffffffffffffffff168152602001908152602001600020549050919050565b60088160088110610a2057600080fd5b016000915090508054610a32906121de565b80601f0160208091040260200160405190810160405280929190818152602001828054610a5e906121de565b8015610aab5780601f10610a8057610100808354040283529160200191610aab565b820191906000526020600020905b815481529060010190602001808311610a8e57829003601f168201915b505050505081565b606060018054610ac2906121de565b80601f0160208091040260200160405190810160405280929190818152602001828054610aee906121de565b8015610b3b5780601f10610b1057610100808354040283529160200191610b3b565b820191906000526020600020905b815481529060010190602001808311610b1e57829003601f168201915b5050505050905090565b610b57610b50610f39565b83836115af565b5050565b610b6c610b66610f39565b8361126b565b610bab576040517f08c379a0000000000000000000000000000000000000000000000000000000008152600401610ba29061255b565b60405180910390fd5b610bb78484848461171b565b50505050565b6060610bc882610ecd565b610c07576040517f08c379a0000000000000000000000000000000000000000000000000000000008152600401610bfe90612711565b60405180910390fd5b6000600660008481526020019081526020016000208054610c27906121de565b80601f0160208091040260200160405190810160405280929190818152602001828054610c53906121de565b8015610ca05780601f10610c7557610100808354040283529160200191610ca0565b820191906000526020600020905b815481529060010190602001808311610c8357829003601f168201915b505050505090506000610cb1611777565b90506000815103610cc6578192505050610d09565b600082511115610cfb578082604051602001610ce392919061276d565b60405160208183030381529060405292505050610d09565b610d048461178e565b925050505b919050565b601160009054906101000a900473ffffffffffffffffffffffffffffffffffffffff1673ffffffffffffffffffffffffffffffffffffffff163373ffffffffffffffffffffffffffffffffffffffff1614610d9e576040517f08c379a0000000000000000000000000000000000000000000000000000000008152600401610d9590612803565b60405180910390fd5b610dcb601160009054906101000a900473ffffffffffffffffffffffffffffffffffffffff168383610864565b5050565b6000600560008473ffffffffffffffffffffffffffffffffffffffff1673ffffffffffffffffffffffffffffffffffffffff16815260200190815260200160002060008373ffffffffffffffffffffffffffffffffffffffff1673ffffffffffffffffffffffffffffffffffffffff16815260200190815260200160002060009054906101000a900460ff16905092915050565b60007f01ffc9a7000000000000000000000000000000000000000000000000000000007bffffffffffffffffffffffffffffffffffffffffffffffffffffffff1916827bffffffffffffffffffffffffffffffffffffffffffffffffffffffff1916149050919050565b60008073ffffffffffffffffffffffffffffffffffffffff166002600084815260200190815260200160002060009054906101000a900473ffffffffffffffffffffffffffffffffffffffff1673ffffffffffffffffffffffffffffffffffffffff1614159050919050565b600033905090565b816004600083815260200190815260200160002060006101000a81548173ffffffffffffffffffffffffffffffffffffffff021916908373ffffffffffffffffffffffffffffffffffffffff160217905550808273ffffffffffffffffffffffffffffffffffffffff16610fb4836108a8565b73ffffffffffffffffffffffffffffffffffffffff167f8c5be1e5ebec7d5bd14f71427d1e84f3dd0314c0f7b2291e5b200ac8c7c3b92560405160405180910390a45050565b600081600001549050919050565b600073ffffffffffffffffffffffffffffffffffffffff168273ffffffffffffffffffffffffffffffffffffffff1603611077576040517f08c379a000000000000000000000000000000000000000000000000000000000815260040161106e9061286f565b60405180910390fd5b61108081610ecd565b156110c0576040517f08c379a00000000000000000000000000000000000000000000000000000000081526004016110b7906128db565b60405180910390fd5b6110cc60008383611835565b6001600360008473ffffffffffffffffffffffffffffffffffffffff1673ffffffffffffffffffffffffffffffffffffffff168152602001908152602001600020600082825461111c91906128fb565b92505081905550816002600083815260200190815260200160002060006101000a81548173ffffffffffffffffffffffffffffffffffffffff021916908373ffffffffffffffffffffffffffffffffffffffff160217905550808273ffffffffffffffffffffffffffffffffffffffff16600073ffffffffffffffffffffffffffffffffffffffff167fddf252ad1be2c89b69c2b068fc378daa952ba7f163c4a11628f55a4df523b3ef60405160405180910390a46111dd6000838361183a565b5050565b6111ea82610ecd565b611229576040517f08c379a0000000000000000000000000000000000000000000000000000000008152600401611220906129c3565b60405180910390fd5b80600660008481526020019081526020016000209080519060200190611250929190611b49565b505050565b6001816000016000828254019250508190555050565b600061127682610ecd565b6112b5576040517f08c379a00000000000000000000000000000000000000000000000000000000081526004016112ac90612a55565b60405180910390fd5b60006112c0836108a8565b90508073ffffffffffffffffffffffffffffffffffffffff168473ffffffffffffffffffffffffffffffffffffffff16148061130257506113018185610dcf565b5b8061134057508373ffffffffffffffffffffffffffffffffffffffff1661132884610518565b73ffffffffffffffffffffffffffffffffffffffff16145b91505092915050565b8273ffffffffffffffffffffffffffffffffffffffff16611369826108a8565b73ffffffffffffffffffffffffffffffffffffffff16146113bf576040517f08c379a00000000000000000000000000000000000000000000000000000000081526004016113b690612ae7565b60405180910390fd5b600073ffffffffffffffffffffffffffffffffffffffff168273ffffffffffffffffffffffffffffffffffffffff160361142e576040517f08c379a000000000000000000000000000000000000000000000000000000000815260040161142590612b79565b60405180910390fd5b611439838383611835565b611444600082610f41565b6001600360008573ffffffffffffffffffffffffffffffffffffffff1673ffffffffffffffffffffffffffffffffffffffff16815260200190815260200160002060008282546114949190612486565b925050819055506001600360008473ffffffffffffffffffffffffffffffffffffffff1673ffffffffffffffffffffffffffffffffffffffff16815260200190815260200160002060008282546114eb91906128fb565b92505081905550816002600083815260200190815260200160002060006101000a81548173ffffffffffffffffffffffffffffffffffffffff021916908373ffffffffffffffffffffffffffffffffffffffff160217905550808273ffffffffffffffffffffffffffffffffffffffff168473ffffffffffffffffffffffffffffffffffffffff167fddf252ad1be2c89b69c2b068fc378daa952ba7f163c4a11628f55a4df523b3ef60405160405180910390a46115aa83838361183a565b505050565b8173ffffffffffffffffffffffffffffffffffffffff168373ffffffffffffffffffffffffffffffffffffffff160361161d576040517f08c379a000000000000000000000000000000000000000000000000000000000815260040161161490612be5565b60405180910390fd5b80600560008573ffffffffffffffffffffffffffffffffffffffff1673ffffffffffffffffffffffffffffffffffffffff16815260200190815260200160002060008473ffffffffffffffffffffffffffffffffffffffff1673ffffffffffffffffffffffffffffffffffffffff16815260200190815260200160002060006101000a81548160ff0219169083151502179055508173ffffffffffffffffffffffffffffffffffffffff168373ffffffffffffffffffffffffffffffffffffffff167f17307eab39ab6107e8899845ad3d59bd9653f200f220920489ca2b5937696c318360405161170e9190611ca0565b60405180910390a3505050565b611726848484611349565b6117328484848461183f565b611771576040517f08c379a000000000000000000000000000000000000000000000000000000000815260040161176890612c77565b60405180910390fd5b50505050565b606060405180602001604052806000815250905090565b606061179982610ecd565b6117d8576040517f08c379a00000000000000000000000000000000000000000000000000000000081526004016117cf90612d09565b60405180910390fd5b60006117e2611777565b90506000815111611802576040518060200160405280600081525061182d565b8061180c846119c6565b60405160200161181d92919061276d565b6040516020818303038152906040525b915050919050565b505050565b505050565b60006118608473ffffffffffffffffffffffffffffffffffffffff16611b26565b156119b9578373ffffffffffffffffffffffffffffffffffffffff1663150b7a02611889610f39565b8786866040518563ffffffff1660e01b81526004016118ab9493929190612d7e565b6020604051808303816000875af19250505080156118e757506040513d601f19601f820116820180604052508101906118e49190612ddf565b60015b611969573d8060008114611917576040519150601f19603f3d011682016040523d82523d6000602084013e61191c565b606091505b506000815103611961576040517f08c379a000000000000000000000000000000000000000000000000000000000815260040161195890612c77565b60405180910390fd5b805181602001fd5b63150b7a0260e01b7bffffffffffffffffffffffffffffffffffffffffffffffffffffffff1916817bffffffffffffffffffffffffffffffffffffffffffffffffffffffff1916149150506119be565b600190505b949350505050565b606060008203611a0d576040518060400160405280600181526020017f30000000000000000000000000000000000000000000000000000000000000008152509050611b21565b600082905060005b60008214611a3f578080611a2890612e0c565b915050600a82611a389190612e83565b9150611a15565b60008167ffffffffffffffff811115611a5b57611a5a611fc1565b5b6040519080825280601f01601f191660200182016040528015611a8d5781602001600182028036833780820191505090505b5090505b60008514611b1a57600182611aa69190612486565b9150600a85611ab59190612eb4565b6030611ac191906128fb565b60f81b818381518110611ad757611ad66124ba565b5b60200101907effffffffffffffffffffffffffffffffffffffffffffffffffffffffffffff1916908160001a905350600a85611b139190612e83565b9450611a91565b8093505050505b919050565b6000808273ffffffffffffffffffffffffffffffffffffffff163b119050919050565b828054611b55906121de565b90600052602060002090601f016020900481019282611b775760008555611bbe565b82601f10611b9057805160ff1916838001178555611bbe565b82800160010185558215611bbe579182015b82811115611bbd578251825591602001919060010190611ba2565b5b509050611bcb9190611bcf565b5090565b5b80821115611be8576000816000905550600101611bd0565b5090565b6000604051905090565b600080fd5b600080fd5b60007fffffffff0000000000000000000000000000000000000000000000000000000082169050919050565b611c3581611c00565b8114611c4057600080fd5b50565b600081359050611c5281611c2c565b92915050565b600060208284031215611c6e57611c6d611bf6565b5b6000611c7c84828501611c43565b91505092915050565b60008115159050919050565b611c9a81611c85565b82525050565b6000602082019050611cb56000830184611c91565b92915050565b600081519050919050565b600082825260208201905092915050565b60005b83811015611cf5578082015181840152602081019050611cda565b83811115611d04576000848401525b50505050565b6000601f19601f8301169050919050565b6000611d2682611cbb565b611d308185611cc6565b9350611d40818560208601611cd7565b611d4981611d0a565b840191505092915050565b60006020820190508181036000830152611d6e8184611d1b565b905092915050565b6000819050919050565b611d8981611d76565b8114611d9457600080fd5b50565b600081359050611da681611d80565b92915050565b600060208284031215611dc257611dc1611bf6565b5b6000611dd084828501611d97565b91505092915050565b600073ffffffffffffffffffffffffffffffffffffffff82169050919050565b6000611e0482611dd9565b9050919050565b611e1481611df9565b82525050565b6000602082019050611e2f6000830184611e0b565b92915050565b611e3e81611df9565b8114611e4957600080fd5b50565b600081359050611e5b81611e35565b92915050565b60008060408385031215611e7857611e77611bf6565b5b6000611e8685828601611e4c565b9250506020611e9785828601611d97565b9150509250929050565b611eaa81611d76565b82525050565b6000602082019050611ec56000830184611ea1565b92915050565b600080600060608486031215611ee457611ee3611bf6565b5b6000611ef286828701611e4c565b9350506020611f0386828701611e4c565b9250506040611f1486828701611d97565b9150509250925092565b600060208284031215611f3457611f33611bf6565b5b6000611f4284828501611e4c565b91505092915050565b611f5481611c85565b8114611f5f57600080fd5b50565b600081359050611f7181611f4b565b92915050565b60008060408385031215611f8e57611f8d611bf6565b5b6000611f9c85828601611e4c565b9250506020611fad85828601611f62565b9150509250929050565b600080fd5b600080fd5b7f4e487b7100000000000000000000000000000000000000000000000000000000600052604160045260246000fd5b611ff982611d0a565b810181811067ffffffffffffffff8211171561201857612017611fc1565b5b80604052505050565b600061202b611bec565b90506120378282611ff0565b919050565b600067ffffffffffffffff82111561205757612056611fc1565b5b61206082611d0a565b9050602081019050919050565b82818337600083830152505050565b600061208f61208a8461203c565b612021565b9050828152602081018484840111156120ab576120aa611fbc565b5b6120b684828561206d565b509392505050565b600082601f8301126120d3576120d2611fb7565b5b81356120e384826020860161207c565b91505092915050565b6000806000806080858703121561210657612105611bf6565b5b600061211487828801611e4c565b945050602061212587828801611e4c565b935050604061213687828801611d97565b925050606085013567ffffffffffffffff81111561215757612156611bfb565b5b612163878288016120be565b91505092959194509250565b6000806040838503121561218657612185611bf6565b5b600061219485828601611e4c565b92505060206121a585828601611e4c565b9150509250929050565b7f4e487b7100000000000000000000000000000000000000000000000000000000600052602260045260246000fd5b600060028204905060018216806121f657607f821691505b602082108103612209576122086121af565b5b50919050565b7f4552433732313a20617070726f76656420717565727920666f72206e6f6e657860008201527f697374656e7420746f6b656e0000000000000000000000000000000000000000602082015250565b600061226b602c83611cc6565b91506122768261220f565b604082019050919050565b6000602082019050818103600083015261229a8161225e565b9050919050565b7f4552433732313a20617070726f76616c20746f2063757272656e74206f776e6560008201527f7200000000000000000000000000000000000000000000000000000000000000602082015250565b60006122fd602183611cc6565b9150612308826122a1565b604082019050919050565b6000602082019050818103600083015261232c816122f0565b9050919050565b7f4552433732313a20617070726f76652063616c6c6572206973206e6f74206f7760008201527f6e6572206e6f7220617070726f76656420666f7220616c6c0000000000000000602082015250565b600061238f603883611cc6565b915061239a82612333565b604082019050919050565b600060208201905081810360008301526123be81612382565b9050919050565b7f506c6561736520696e73657274206120636f727265637420636c61737320666f60008201527f7220746865207072697a65210000000000000000000000000000000000000000602082015250565b6000612421602c83611cc6565b915061242c826123c5565b604082019050919050565b6000602082019050818103600083015261245081612414565b9050919050565b7f4e487b7100000000000000000000000000000000000000000000000000000000600052601160045260246000fd5b600061249182611d76565b915061249c83611d76565b9250828210156124af576124ae612457565b5b828203905092915050565b7f4e487b7100000000000000000000000000000000000000000000000000000000600052603260045260246000fd5b7f4552433732313a207472616e736665722063616c6c6572206973206e6f74206f60008201527f776e6572206e6f7220617070726f766564000000000000000000000000000000602082015250565b6000612545603183611cc6565b9150612550826124e9565b604082019050919050565b6000602082019050818103600083015261257481612538565b9050919050565b7f4552433732313a206f776e657220717565727920666f72206e6f6e657869737460008201527f656e7420746f6b656e0000000000000000000000000000000000000000000000602082015250565b60006125d7602983611cc6565b91506125e28261257b565b604082019050919050565b60006020820190508181036000830152612606816125ca565b9050919050565b7f4552433732313a2062616c616e636520717565727920666f7220746865207a6560008201527f726f206164647265737300000000000000000000000000000000000000000000602082015250565b6000612669602a83611cc6565b91506126748261260d565b604082019050919050565b600060208201905081810360008301526126988161265c565b9050919050565b7f45524337323155524953746f726167653a2055524920717565727920666f722060008201527f6e6f6e6578697374656e7420746f6b656e000000000000000000000000000000602082015250565b60006126fb603183611cc6565b91506127068261269f565b604082019050919050565b6000602082019050818103600083015261272a816126ee565b9050919050565b600081905092915050565b600061274782611cbb565b6127518185612731565b9350612761818560208601611cd7565b80840191505092915050565b6000612779828561273c565b9150612785828461273c565b91508190509392505050565b7f596f7520617265206e6f7420746865206c6f7474657279206f70657261746f7260008201527f2c207065726d697373696f6e2064656e69656421000000000000000000000000602082015250565b60006127ed603483611cc6565b91506127f882612791565b604082019050919050565b6000602082019050818103600083015261281c816127e0565b9050919050565b7f4552433732313a206d696e7420746f20746865207a65726f2061646472657373600082015250565b6000612859602083611cc6565b915061286482612823565b602082019050919050565b600060208201905081810360008301526128888161284c565b9050919050565b7f4552433732313a20746f6b656e20616c7265616479206d696e74656400000000600082015250565b60006128c5601c83611cc6565b91506128d08261288f565b602082019050919050565b600060208201905081810360008301526128f4816128b8565b9050919050565b600061290682611d76565b915061291183611d76565b9250827fffffffffffffffffffffffffffffffffffffffffffffffffffffffffffffffff0382111561294657612945612457565b5b828201905092915050565b7f45524337323155524953746f726167653a2055524920736574206f66206e6f6e60008201527f6578697374656e7420746f6b656e000000000000000000000000000000000000602082015250565b60006129ad602e83611cc6565b91506129b882612951565b604082019050919050565b600060208201905081810360008301526129dc816129a0565b9050919050565b7f4552433732313a206f70657261746f7220717565727920666f72206e6f6e657860008201527f697374656e7420746f6b656e0000000000000000000000000000000000000000602082015250565b6000612a3f602c83611cc6565b9150612a4a826129e3565b604082019050919050565b60006020820190508181036000830152612a6e81612a32565b9050919050565b7f4552433732313a207472616e736665722066726f6d20696e636f72726563742060008201527f6f776e6572000000000000000000000000000000000000000000000000000000602082015250565b6000612ad1602583611cc6565b9150612adc82612a75565b604082019050919050565b60006020820190508181036000830152612b0081612ac4565b9050919050565b7f4552433732313a207472616e7366657220746f20746865207a65726f2061646460008201527f7265737300000000000000000000000000000000000000000000000000000000602082015250565b6000612b63602483611cc6565b9150612b6e82612b07565b604082019050919050565b60006020820190508181036000830152612b9281612b56565b9050919050565b7f4552433732313a20617070726f766520746f2063616c6c657200000000000000600082015250565b6000612bcf601983611cc6565b9150612bda82612b99565b602082019050919050565b60006020820190508181036000830152612bfe81612bc2565b9050919050565b7f4552433732313a207472616e7366657220746f206e6f6e20455243373231526560008201527f63656976657220696d706c656d656e7465720000000000000000000000000000602082015250565b6000612c61603283611cc6565b9150612c6c82612c05565b604082019050919050565b60006020820190508181036000830152612c9081612c54565b9050919050565b7f4552433732314d657461646174613a2055524920717565727920666f72206e6f60008201527f6e6578697374656e7420746f6b656e0000000000000000000000000000000000602082015250565b6000612cf3602f83611cc6565b9150612cfe82612c97565b604082019050919050565b60006020820190508181036000830152612d2281612ce6565b9050919050565b600081519050919050565b600082825260208201905092915050565b6000612d5082612d29565b612d5a8185612d34565b9350612d6a818560208601611cd7565b612d7381611d0a565b840191505092915050565b6000608082019050612d936000830187611e0b565b612da06020830186611e0b565b612dad6040830185611ea1565b8181036060830152612dbf8184612d45565b905095945050505050565b600081519050612dd981611c2c565b92915050565b600060208284031215612df557612df4611bf6565b5b6000612e0384828501612dca565b91505092915050565b6000612e1782611d76565b91507fffffffffffffffffffffffffffffffffffffffffffffffffffffffffffffffff8203612e4957612e48612457565b5b600182019050919050565b7f4e487b7100000000000000000000000000000000000000000000000000000000600052601260045260246000fd5b6000612e8e82611d76565b9150612e9983611d76565b925082612ea957612ea8612e54565b5b828204905092915050565b6000612ebf82611d76565b9150612eca83611d76565b925082612eda57612ed9612e54565b5b82820690509291505056fea2646970667358221220a5b9ffa57a8b5d2744e6f16e254a917c4e71d2dbfb44c2b1ebff323c862bc72864736f6c634300080e003368747470733a2f2f697066732e696f2f697066732f516d536e695941444d66374e446d3453586261333771356d6f506348516673476b724b566176777a38344a6858343f66696c656e616d653d4368696368652543432538316e25323049747a612543432538312532302d2532304d65737369636f2e6a706768747470733a2f2f697066732e696f2f697066732f516d56523873616f7a6f32776e695333567841346a4164694a416d45653272324867364639637369517264336f733f66696c656e616d653d50657472612532302d25323047696f7264616e69612e6a706768747470733a2f2f697066732e696f2f697066732f516d58645a70777550633357676e434352374e474c6b764552583573784e5664585161565445455a6756424154783f66696c656e616d653d372532304d6572617669676c696525323064656c2532306d6f6e646f2532306d6f6465726e6f2e6a706768747470733a2f2f697066732e696f2f697066732f516d623454586848717477763258414c47665939697a6e626235627038645970695a6357463842686941614e59673f66696c656e616d653d4d616368752532305069636368752532302d253230506572752543432538302e6a706768747470733a2f2f697066732e696f2f697066732f516d654161374b59526578623471385039765650714879523478667735446236476d65584b7066477a435a754a7a3f66696c656e616d653d4772616e64652532304d757261676c696125323043696e6573652532302d25323043696e612e6a706768747470733a2f2f697066732e696f2f697066732f516d56374d346d7934755277674c4e746a424e3450464332576a5563656168694b6662584e7452457376574c74613f66696c656e616d653d436f6c6f7373656f2532302d2532304974616c69612e6a706768747470733a2f2f697066732e696f2f697066732f516d534a58615565796551467341725a624676673261645862794d6256647a3234363434676f77743932444248673f66696c656e616d653d43726973746f253230526564656e746f72652532302d25323042726173696c652e6a706768747470733a2f2f697066732e696f2f697066732f516d6572574c5543696d525641766545425057324d516d4c5a35564471323457387939765132774e466e64396a6a3f66696c656e616d653d54616a2532304d6168616c2532302d253230496e6469612e6a7067",
  "immutableReferences": {},
  "source": "// SPDX-License-Identifier: MIT\npragma solidity ^0.8.0;\n\nimport \"./LotteryMint.sol\";\n\ncontract Lottery{\n\n    //Data struct to manage player's address and played numbers\n    struct Ticket{\n        address playerAddress;\n        uint [] playedNumbers;\n    }\n\n    uint private constant TICKET_PRICE = 1 ether; \n    address payable private lotteryOperator; //Address of the lottery operator\n    \n    uint private ticketingCloses;\n\n    //Declaration of LotteryMint contract\n    LotteryMint item;\n    \n    //List of NFTs IDs\n    uint256 [8] private NFTList;\n    \n    //Array for sorted winning numbers\n    uint256 [6] private winningNumbers; \n    \n    uint8 private previousValue;\n    Ticket [] private tickets;\n    uint private lotteryDuration;\n    uint private DEBUG = 0;\n    uint private K = 2;\n\n    // Events \n    event ticketBuy(address player);\n    event roundClosed();\n    event roundStart();\n    event NFTMinted(address NFTOwner, uint256 newNFTId);\n    event awardPlayer(address player, uint256 prize);\n    event numbersDrawn();\n    event lotteryClosed();\n\n    \n    constructor (uint duration){\n        lotteryOperator = payable(msg.sender);\n        item = new LotteryMint();\n        ticketingCloses = block.number + duration;\n        lotteryDuration = duration;\n        \n        for(uint i = 1; i < 9; i++){\n            mint(i);\n        }\n        \n    }\n    \n    //Function to buy a new Ticket and to choose numbers to play\n    function buy (uint [] memory numbers) public payable { \n        require(block.number < ticketingCloses, \"Lottery round already closed, wait for a new round please!\");\n        require(msg.value == TICKET_PRICE, \"Not enough money, Ticket Price --> 1 Ether\"); \n        require(numbers.length == 6, \"Please choose exactly six different numbers!\");\n        Ticket memory newTicket;\n        newTicket.playerAddress = msg.sender;\n        newTicket.playedNumbers = numbers;\n        tickets.push(newTicket);\n        emit ticketBuy(msg.sender);\n    }\n\n    //Function to select and award winners\n    function givePrizes () private {\n        require(msg.sender == lotteryOperator, \"You are not the lottery operator, permission denied!\");\n        require(block.number > ticketingCloses, \"Round still open, please wait lottery round ends!\"); \n\n        uint guessed = 0;\n        uint class = 0;\n        bool powerBall = false;\n        \n        for(uint i = 0; i < tickets.length ;i++){\n            Ticket memory player = tickets[i];\n            for(uint j = 0; j < player.playedNumbers.length - 1 ; j++){\n                uint num = player.playedNumbers[j];\n                for(uint k = 0; k < 5; k++){\n                    if(num == winningNumbers[k]){\n                        guessed++;\n                    }\n                }\n            }\n            if(player.playedNumbers[5] == winningNumbers[5]){\n                powerBall = true;\n            }\n            class = uint(selectClass(guessed,powerBall));\n\n            if(class > 0){\n                item.sendNFT(player.playerAddress, NFTList[class - 1]);\n                emit awardPlayer(player.playerAddress, NFTList[class - 1]);\n                mint(class);\n            }\n            powerBall = false;\n            guessed = 0;\n        }\n    }\n\n    //Function used to select correct prize class\n    function selectClass (uint guessed, bool powerBall) private pure returns(uint) {\n        uint prize = 0;\n        \n        if(guessed == 0 && powerBall){\n            prize = 8;\n        }else{\n            if(guessed == 1 && !powerBall){\n                prize = 7;\n            }else{\n                if(guessed == 2 && !powerBall || (guessed == 1 && powerBall)){\n                    prize = 6;\n                }else{\n                    if(guessed == 3 && !powerBall || (guessed == 2 && powerBall)){\n                        prize = 5;\n                    }else{\n                        if(guessed == 4 && !powerBall || (guessed == 3 && powerBall)){\n                            prize = 4;\n                        }else{\n                            if(guessed == 4 && powerBall){\n                                prize = 3;\n                            }else{\n                                if(guessed == 5 && !powerBall){\n                                    prize = 2;\n                                }else{\n                                    if(guessed == 5 && powerBall){\n                                        prize = 1;\n                                    }\n                                }\n                            }\n                        }\n                    }\n                }\n            }\n        }\n        return prize;\n    }\n    //Function used to start a new lottery round\n    function startNewRound () public {\n        require(msg.sender == lotteryOperator, \"You are not the lottery operator, permission denied!\");\n        require(block.number > ticketingCloses, \"Round still open, please wait lottery round ends!\");\n        delete winningNumbers;\n        delete tickets;\n        ticketingCloses = block.number + lotteryDuration;\n        emit roundStart();\n    }\n\n    //Function for lottery operator to draw winning numbers\n    function drawNumbers () private {\n        if(DEBUG == 1){\n        for (uint i = 0; i < 5; i++){\n            winningNumbers[i] = i+1;\n        }\n        winningNumbers[5] = 6;\n        }else{\n        require(msg.sender == lotteryOperator, \"You are not the lottery operator, permission denied!\");\n        require(block.number > ticketingCloses, \"Round still open, please wait lottery round ends!\"); \n        for (uint i = 0; i < 6; i++){\n            \n            if(i == 5){\n                winningNumbers[i] = rand(26);\n            }\n            else{\n                winningNumbers[i] = rand(69);\n            }\n            for(uint j = 0; j <= i; j++){\n                if(winningNumbers[i] == winningNumbers[j] && i != 5){\n                    winningNumbers[i] = rand(69);\n                }\n                if(winningNumbers[i] == winningNumbers[j] && i == 5){\n                    winningNumbers[i] = rand(26);\n                }\n            }\n        }\n        }\n\n        emit numbersDrawn();\n    }\n\n    //Function used draw numbers and give prizes. Only the lottery operator can call this function.\n    function closeRound () public{\n        require(msg.sender == lotteryOperator, \"You are not the lottery operator, permission denied!\");\n        require(block.number > ticketingCloses, \"Round still open, please wait lottery round ends!\"); \n        drawNumbers();\n        givePrizes();\n        withdraw();\n        emit roundClosed();\n    }\n\n    //Function used to close the Lottery and deactivate  the contract\n    function closeLottery () public {\n        require(msg.sender == lotteryOperator, \"You are not the lottery operator, permission denied!\");\n        address payable refunded;\n        if (block.number <= ticketingCloses){\n            for (uint i = 0; i < tickets.length ;i++){\n                refunded = payable(tickets[i].playerAddress);\n                refunded.transfer(TICKET_PRICE);\n            }\n        }\n        emit lotteryClosed();\n        selfdestruct(payable(msg.sender));\n    }\n\n    //Function used to mint a new NFT\n    function mint (uint class) private{\n        require(msg.sender == lotteryOperator, \"You are not the lottery operator, permission denied!\");\n        uint256 NFT_ID = uint256(item.awardItem(class));\n        NFTList[class - 1] = NFT_ID;\n        emit NFTMinted(msg.sender, NFT_ID);\n    }\n    \n    //Function used by the lottery operator to send contract balance to  the lottery operator's address\n    function withdraw () private { \n        require(msg.sender == lotteryOperator, \"You are not the lottery operator, permission denied!\");\n        require(block.number > ticketingCloses, \"Round still open, please wait lottery round ends!\"); \n        lotteryOperator.transfer(address(this).balance);\n     }\n\n    //Function used to deterministically extract pseudo-random winning numbers for the lottery\n    function rand(uint modulus) private returns (uint8) {\n        previousValue = uint8((uint256(keccak256(abi.encodePacked(block.number + K, previousValue))))% modulus);\n        return previousValue;\n    }\n}\n\n",
  "sourcePath": "/Users/Koto/Documents/Unipi/P2P/Final Project/-P2P-Final-Project-/contracts/Lottery.sol",
  "compiler": {
    "name": "solc",
    "version": "0.8.14+commit.80d49f37.Emscripten.clang"
  },
  "schemaVersion": "3.4.7",
  "updatedAt": "2022-06-24T15:32:31.654Z",
  "devdoc": {
    "kind": "dev",
    "methods": {},
    "version": 1
  },
  "userdoc": {
    "kind": "user",
    "methods": {},
    "version": 1
  }
}